{"abi":[{"type":"constructor","inputs":[{"name":"_usdc","type":"address","internalType":"address"}],"stateMutability":"nonpayable"},{"type":"function","name":"claimWinnings","inputs":[{"name":"marketId","type":"string","internalType":"string"}],"outputs":[],"stateMutability":"nonpayable"},{"type":"function","name":"claimed","inputs":[{"name":"","type":"string","internalType":"string"},{"name":"","type":"address","internalType":"address"}],"outputs":[{"name":"","type":"bool","internalType":"bool"}],"stateMutability":"view"},{"type":"function","name":"createMarket","inputs":[{"name":"marketId","type":"string","internalType":"string"},{"name":"category","type":"string","internalType":"string"},{"name":"resolutionTime","type":"uint256","internalType":"uint256"}],"outputs":[],"stateMutability":"nonpayable"},{"type":"function","name":"fadeStakes","inputs":[{"name":"","type":"string","internalType":"string"},{"name":"","type":"address","internalType":"address"}],"outputs":[{"name":"","type":"uint256","internalType":"uint256"}],"stateMutability":"view"},{"type":"function","name":"followStakes","inputs":[{"name":"","type":"string","internalType":"string"},{"name":"","type":"address","internalType":"address"}],"outputs":[{"name":"","type":"uint256","internalType":"uint256"}],"stateMutability":"view"},{"type":"function","name":"getMarket","inputs":[{"name":"marketId","type":"string","internalType":"string"}],"outputs":[{"name":"","type":"tuple","internalType":"struct ARCSignal.Market","components":[{"name":"marketId","type":"string","internalType":"string"},{"name":"category","type":"string","internalType":"string"},{"name":"resolutionTime","type":"uint256","internalType":"uint256"},{"name":"followPool","type":"uint256","internalType":"uint256"},{"name":"fadePool","type":"uint256","internalType":"uint256"},{"name":"resolved","type":"bool","internalType":"bool"},{"name":"outcome","type":"uint8","internalType":"uint8"}]}],"stateMutability":"view"},{"type":"function","name":"markets","inputs":[{"name":"","type":"string","internalType":"string"}],"outputs":[{"name":"marketId","type":"string","internalType":"string"},{"name":"category","type":"string","internalType":"string"},{"name":"resolutionTime","type":"uint256","internalType":"uint256"},{"name":"followPool","type":"uint256","internalType":"uint256"},{"name":"fadePool","type":"uint256","internalType":"uint256"},{"name":"resolved","type":"bool","internalType":"bool"},{"name":"outcome","type":"uint8","internalType":"uint8"}],"stateMutability":"view"},{"type":"function","name":"owner","inputs":[],"outputs":[{"name":"","type":"address","internalType":"address"}],"stateMutability":"view"},{"type":"function","name":"renounceOwnership","inputs":[],"outputs":[],"stateMutability":"nonpayable"},{"type":"function","name":"resolveMarket","inputs":[{"name":"marketId","type":"string","internalType":"string"},{"name":"outcome","type":"uint8","internalType":"uint8"}],"outputs":[],"stateMutability":"nonpayable"},{"type":"function","name":"stake","inputs":[{"name":"marketId","type":"string","internalType":"string"},{"name":"side","type":"uint8","internalType":"uint8"},{"name":"amount","type":"uint256","internalType":"uint256"}],"outputs":[],"stateMutability":"nonpayable"},{"type":"function","name":"transferOwnership","inputs":[{"name":"newOwner","type":"address","internalType":"address"}],"outputs":[],"stateMutability":"nonpayable"},{"type":"function","name":"usdc","inputs":[],"outputs":[{"name":"","type":"address","internalType":"contract IERC20"}],"stateMutability":"view"},{"type":"event","name":"Claimed","inputs":[{"name":"marketId","type":"string","indexed":false,"internalType":"string"},{"name":"user","type":"address","indexed":false,"internalType":"address"},{"name":"amount","type":"uint256","indexed":false,"internalType":"uint256"}],"anonymous":false},{"type":"event","name":"MarketCreated","inputs":[{"name":"marketId","type":"string","indexed":false,"internalType":"string"},{"name":"category","type":"string","indexed":false,"internalType":"string"},{"name":"resolutionTime","type":"uint256","indexed":false,"internalType":"uint256"}],"anonymous":false},{"type":"event","name":"MarketResolved","inputs":[{"name":"marketId","type":"string","indexed":false,"internalType":"string"},{"name":"outcome","type":"uint8","indexed":false,"internalType":"uint8"}],"anonymous":false},{"type":"event","name":"OwnershipTransferred","inputs":[{"name":"previousOwner","type":"address","indexed":true,"internalType":"address"},{"name":"newOwner","type":"address","indexed":true,"internalType":"address"}],"anonymous":false},{"type":"event","name":"Staked","inputs":[{"name":"marketId","type":"string","indexed":false,"internalType":"string"},{"name":"user","type":"address","indexed":false,"internalType":"address"},{"name":"side","type":"uint8","indexed":false,"internalType":"uint8"},{"name":"amount","type":"uint256","indexed":false,"internalType":"uint256"}],"anonymous":false},{"type":"error","name":"OwnableInvalidOwner","inputs":[{"name":"owner","type":"address","internalType":"address"}]},{"type":"error","name":"OwnableUnauthorizedAccount","inputs":[{"name":"account","type":"address","internalType":"address"}]}],"bytecode":{"object":"0x608060405234801561000f575f5ffd5b506040516116d63803806116d683398101604081905261002e916100d1565b338061005357604051631e4fbdf760e01b81525f600482015260240160405180910390fd5b61005c81610082565b50600180546001600160a01b0319166001600160a01b03929092169190911790556100fe565b5f80546001600160a01b038381166001600160a01b0319831681178455604051919092169283917f8be0079c531659141344cd1fd0a4f28419497f9722a3daafe3b4186f6b6457e09190a35050565b5f602082840312156100e1575f5ffd5b81516001600160a01b03811681146100f7575f5ffd5b9392505050565b6115cb8061010b5f395ff3fe608060405234801561000f575f5ffd5b50600436106100cb575f3560e01c80638e4821c511610088578063efbda66111610063578063efbda6611461022e578063f2fde38b14610254578063f98b778314610267578063fdbcf1251461027a575f5ffd5b80638e4821c5146101c1578063ac2a067d146101d4578063d3887994146101f4575f5ffd5b80632ed25620146100cf5780633e413bee146101215780635aa8ff151461014c578063715018a6146101615780638bde0e01146101695780638da5cb5b146101b1575b5f5ffd5b61010c6100dd366004611037565b81516020818401810180516005825292820194820194909420919093529091525f908152604090205460ff1681565b60405190151581526020015b60405180910390f35b600154610134906001600160a01b031681565b6040516001600160a01b039091168152602001610118565b61015f61015a366004611092565b61028d565b005b61015f6103ac565b6101a3610177366004611037565b81516020818401810180516003825292820194820194909420919093529091525f908152604090205481565b604051908152602001610118565b5f546001600160a01b0316610134565b61015f6101cf3660046110d4565b6103bf565b6101e76101e2366004611128565b610682565b6040516101189190611190565b6101a3610202366004611037565b81516020818401810180516004825292820194820194909420919093529091525f908152604090205481565b61024161023c366004611128565b61084c565b604051610118979695949392919061120d565b61015f610262366004611261565b6109a4565b61015f610275366004611281565b6109e1565b61015f610288366004611128565b610aeb565b610295610f02565b6002826040516102a591906112ef565b9081526040519081900360200190206005015460ff16156103005760405162461bcd60e51b815260206004820152601060248201526f105b1c9958591e481c995cdbdb1d995960821b60448201526064015b60405180910390fd5b600160028360405161031291906112ef565b908152604051908190036020018120600501805492151560ff199093169290921790915581906002906103469085906112ef565b908152602001604051809103902060050160016101000a81548160ff021916908360ff1602179055507f9dc5f3aa979166e3973169ba85cc4aff965cdd42156ea7225eb4b13cf11dd14c82826040516103a0929190611305565b60405180910390a15050565b6103b4610f02565b6103bd5f610f2e565b565b6002836040516103cf91906112ef565b9081526040519081900360200190206005015460ff16156104245760405162461bcd60e51b815260206004820152600f60248201526e13585c9ad95d081c995cdbdb1d9959608a1b60448201526064016102f7565b60028360405161043491906112ef565b90815260200160405180910390206002015442106104845760405162461bcd60e51b815260206004820152600d60248201526c13585c9ad95d0818db1bdcd959609a1b60448201526064016102f7565b5f81116104c85760405162461bcd60e51b81526020600482015260126024820152710416d6f756e74206d757374206265203e20360741b60448201526064016102f7565b6001546040516323b872dd60e01b8152336004820152306024820152604481018390526001600160a01b03909116906323b872dd906064016020604051808303815f875af115801561051c573d5f5f3e3d5ffd5b505050506040513d601f19601f820116820180604052508101906105409190611329565b508160ff165f036105c8578060028460405161055c91906112ef565b90815260200160405180910390206003015f82825461057b919061135c565b925050819055508060038460405161059391906112ef565b9081526040805160209281900383019020335f9081529252812080549091906105bd90849061135c565b909155506106409050565b806002846040516105d991906112ef565b90815260200160405180910390206004015f8282546105f8919061135c565b925050819055508060048460405161061091906112ef565b9081526040805160209281900383019020335f90815292528120805490919061063a90849061135c565b90915550505b7ffb556f5c073bfd584ecae504eb726ff0af1ac2d030d08ffa0e8c612b2ac990b0833384846040516106759493929190611375565b60405180910390a1505050565b6106c26040518060e0016040528060608152602001606081526020015f81526020015f81526020015f81526020015f151581526020015f60ff1681525090565b6002826040516106d291906112ef565b90815260200160405180910390206040518060e00160405290815f820180546106fa906113af565b80601f0160208091040260200160405190810160405280929190818152602001828054610726906113af565b80156107715780601f1061074857610100808354040283529160200191610771565b820191905f5260205f20905b81548152906001019060200180831161075457829003601f168201915b5050505050815260200160018201805461078a906113af565b80601f01602080910402602001604051908101604052809291908181526020018280546107b6906113af565b80156108015780601f106107d857610100808354040283529160200191610801565b820191905f5260205f20905b8154815290600101906020018083116107e457829003601f168201915b505050918352505060028201546020820152600382015460408201526004820154606082015260059091015460ff808216151560808401526101009091041660a09091015292915050565b8051602081830181018051600282529282019190930120915280548190610872906113af565b80601f016020809104026020016040519081016040528092919081815260200182805461089e906113af565b80156108e95780601f106108c0576101008083540402835291602001916108e9565b820191905f5260205f20905b8154815290600101906020018083116108cc57829003601f168201915b5050505050908060010180546108fe906113af565b80601f016020809104026020016040519081016040528092919081815260200182805461092a906113af565b80156109755780601f1061094c57610100808354040283529160200191610975565b820191905f5260205f20905b81548152906001019060200180831161095857829003601f168201915b505050506002830154600384015460048501546005909501549394919390925060ff8082169161010090041687565b6109ac610f02565b6001600160a01b0381166109d557604051631e4fbdf760e01b81525f60048201526024016102f7565b6109de81610f2e565b50565b6109e9610f02565b6040518060e001604052808481526020018381526020018281526020015f81526020015f81526020015f151581526020015f60ff16815250600284604051610a3191906112ef565b90815260405190819003602001902081518190610a4e908261143e565b5060208201516001820190610a63908261143e565b506040828101516002830155606083015160038301556080830151600483015560a08301516005909201805460c09094015160ff166101000261ff00199315159390931661ffff199094169390931791909117909155517f58de66e5e88bc31129cc8c1080ab8342d04f884dff43769c06dfd3023f5a5f7690610675908590859085906114fd565b5f600282604051610afc91906112ef565b90815260200160405180910390206040518060e00160405290815f82018054610b24906113af565b80601f0160208091040260200160405190810160405280929190818152602001828054610b50906113af565b8015610b9b5780601f10610b7257610100808354040283529160200191610b9b565b820191905f5260205f20905b815481529060010190602001808311610b7e57829003601f168201915b50505050508152602001600182018054610bb4906113af565b80601f0160208091040260200160405190810160405280929190818152602001828054610be0906113af565b8015610c2b5780601f10610c0257610100808354040283529160200191610c2b565b820191905f5260205f20905b815481529060010190602001808311610c0e57829003601f168201915b505050918352505060028201546020820152600382015460408201526004820154606082015260059091015460ff808216151560808401526101009091041660a091820152810151909150610cb15760405162461bcd60e51b815260206004820152600c60248201526b139bdd081c995cdbdb1d995960a21b60448201526064016102f7565b600582604051610cc191906112ef565b9081526040805160209281900383019020335f908152925290205460ff1615610d1e5760405162461bcd60e51b815260206004820152600f60248201526e105b1c9958591e4818db185a5b5959608a1b60448201526064016102f7565b5f5f5f83608001518460600151610d35919061135c565b90508360c0015160ff165f03610d7f57600385604051610d5591906112ef565b9081526040805160209281900383019020335f908152925290205460608501519093509150610db5565b600485604051610d8f91906112ef565b9081526040805160209281900383019020335f9081529252902054608085015190935091505b5f8311610df75760405162461bcd60e51b815260206004820152601060248201526f4e6f2077696e6e696e67207374616b6560801b60448201526064016102f7565b5f82610e038386611532565b610e0d9190611549565b90506001600587604051610e2191906112ef565b9081526040805160209281900383018120335f8181529190945291909120805460ff19169315159390931790925560015463a9059cbb60e01b83526004830191909152602482018390526001600160a01b03169063a9059cbb906044016020604051808303815f875af1158015610e9a573d5f5f3e3d5ffd5b505050506040513d601f19601f82011682018060405250810190610ebe9190611329565b507f7ca58b3d3af286614421364e3dc07e3961a7ce97c19ab3be45fdc2ad13d0b97d863383604051610ef293929190611568565b60405180910390a1505050505050565b5f546001600160a01b031633146103bd5760405163118cdaa760e01b81523360048201526024016102f7565b5f80546001600160a01b038381166001600160a01b0319831681178455604051919092169283917f8be0079c531659141344cd1fd0a4f28419497f9722a3daafe3b4186f6b6457e09190a35050565b634e487b7160e01b5f52604160045260245ffd5b5f82601f830112610fa0575f5ffd5b813567ffffffffffffffff811115610fba57610fba610f7d565b604051601f8201601f19908116603f0116810167ffffffffffffffff81118282101715610fe957610fe9610f7d565b604052818152838201602001851015611000575f5ffd5b816020850160208301375f918101602001919091529392505050565b80356001600160a01b0381168114611032575f5ffd5b919050565b5f5f60408385031215611048575f5ffd5b823567ffffffffffffffff81111561105e575f5ffd5b61106a85828601610f91565b9250506110796020840161101c565b90509250929050565b803560ff81168114611032575f5ffd5b5f5f604083850312156110a3575f5ffd5b823567ffffffffffffffff8111156110b9575f5ffd5b6110c585828601610f91565b92505061107960208401611082565b5f5f5f606084860312156110e6575f5ffd5b833567ffffffffffffffff8111156110fc575f5ffd5b61110886828701610f91565b93505061111760208501611082565b929592945050506040919091013590565b5f60208284031215611138575f5ffd5b813567ffffffffffffffff81111561114e575f5ffd5b61115a84828501610f91565b949350505050565b5f81518084528060208401602086015e5f602082860101526020601f19601f83011685010191505092915050565b602081525f825160e060208401526111ac610100840182611162565b90506020840151601f198483030160408501526111c98282611162565b9150506040840151606084015260608401516080840152608084015160a084015260a0840151151560c084015260ff60c08501511660e08401528091505092915050565b60e081525f61121f60e083018a611162565b8281036020840152611231818a611162565b6040840198909852505060608101949094526080840192909252151560a083015260ff1660c09091015292915050565b5f60208284031215611271575f5ffd5b61127a8261101c565b9392505050565b5f5f5f60608486031215611293575f5ffd5b833567ffffffffffffffff8111156112a9575f5ffd5b6112b586828701610f91565b935050602084013567ffffffffffffffff8111156112d1575f5ffd5b6112dd86828701610f91565b93969395505050506040919091013590565b5f82518060208501845e5f920191825250919050565b604081525f6113176040830185611162565b905060ff831660208301529392505050565b5f60208284031215611339575f5ffd5b8151801515811461127a575f5ffd5b634e487b7160e01b5f52601160045260245ffd5b8082018082111561136f5761136f611348565b92915050565b608081525f6113876080830187611162565b6001600160a01b039590951660208301525060ff929092166040830152606090910152919050565b600181811c908216806113c357607f821691505b6020821081036113e157634e487b7160e01b5f52602260045260245ffd5b50919050565b601f821115611439578282111561143957805f5260205f20601f840160051c602085101561141257505f5b90810190601f840160051c035f5b81811015611435575f83820155600101611420565b5050505b505050565b815167ffffffffffffffff81111561145857611458610f7d565b61146c8161146684546113af565b846113e7565b6020601f82116001811461149e575f83156114875750848201515b5f19600385901b1c1916600184901b1784556114f6565b5f84815260208120601f198516915b828110156114cd57878501518255602094850194600190920191016114ad565b50848210156114ea57868401515f19600387901b60f8161c191681555b505060018360011b0184555b5050505050565b606081525f61150f6060830186611162565b82810360208401526115218186611162565b915050826040830152949350505050565b808202811582820484141761136f5761136f611348565b5f8261156357634e487b7160e01b5f52601260045260245ffd5b500490565b606081525f61157a6060830186611162565b6001600160a01b03949094166020830152506040015291905056fea26469706673582212206b78fd1d17e058fcebe04f52fe98366390178ba088265c08ffdbf6ea4e15e0e264736f6c63430008230033","linkReferences":{}},"methodIdentifiers":{"claimWinnings(string)":"fdbcf125","claimed(string,address)":"2ed25620","createMarket(string,string,uint256)":"f98b7783","fadeStakes(string,address)":"d3887994","followStakes(string,address)":"8bde0e01","getMarket(string)":"ac2a067d","markets(string)":"efbda661","owner()":"8da5cb5b","renounceOwnership()":"715018a6","resolveMarket(string,uint8)":"5aa8ff15","stake(string,uint8,uint256)":"8e4821c5","transferOwnership(address)":"f2fde38b","usdc()":"3e413bee"},"id":38}