{"abi":[{"type":"constructor","inputs":[{"name":"_usdc","type":"address","internalType":"address"}],"stateMutability":"nonpayable"},{"type":"function","name":"claimWinnings","inputs":[{"name":"marketId","type":"string","internalType":"string"}],"outputs":[],"stateMutability":"nonpayable"},{"type":"function","name":"claimed","inputs":[{"name":"","type":"string","internalType":"string"},{"name":"","type":"address","internalType":"address"}],"outputs":[{"name":"","type":"bool","internalType":"bool"}],"stateMutability":"view"},{"type":"function","name":"createMarket","inputs":[{"name":"marketId","type":"string","internalType":"string"},{"name":"category","type":"string","internalType":"string"},{"name":"resolutionTime","type":"uint256","internalType":"uint256"}],"outputs":[],"stateMutability":"nonpayable"},{"type":"function","name":"fadeStakes","inputs":[{"name":"","type":"string","internalType":"string"},{"name":"","type":"address","internalType":"address"}],"outputs":[{"name":"","type":"uint256","internalType":"uint256"}],"stateMutability":"view"},{"type":"function","name":"followStakes","inputs":[{"name":"","type":"string","internalType":"string"},{"name":"","type":"address","internalType":"address"}],"outputs":[{"name":"","type":"uint256","internalType":"uint256"}],"stateMutability":"view"},{"type":"function","name":"getMarket","inputs":[{"name":"marketId","type":"string","internalType":"string"}],"outputs":[{"name":"","type":"tuple","internalType":"struct ARCSignal.Market","components":[{"name":"marketId","type":"string","internalType":"string"},{"name":"category","type":"string","internalType":"string"},{"name":"resolutionTime","type":"uint256","internalType":"uint256"},{"name":"followPool","type":"uint256","internalType":"uint256"},{"name":"fadePool","type":"uint256","internalType":"uint256"},{"name":"resolved","type":"bool","internalType":"bool"},{"name":"outcome","type":"uint8","internalType":"uint8"}]}],"stateMutability":"view"},{"type":"function","name":"markets","inputs":[{"name":"","type":"string","internalType":"string"}],"outputs":[{"name":"marketId","type":"string","internalType":"string"},{"name":"category","type":"string","internalType":"string"},{"name":"resolutionTime","type":"uint256","internalType":"uint256"},{"name":"followPool","type":"uint256","internalType":"uint256"},{"name":"fadePool","type":"uint256","internalType":"uint256"},{"name":"resolved","type":"bool","internalType":"bool"},{"name":"outcome","type":"uint8","internalType":"uint8"}],"stateMutability":"view"},{"type":"function","name":"owner","inputs":[],"outputs":[{"name":"","type":"address","internalType":"address"}],"stateMutability":"view"},{"type":"function","name":"renounceOwnership","inputs":[],"outputs":[],"stateMutability":"nonpayable"},{"type":"function","name":"resolveMarket","inputs":[{"name":"marketId","type":"string","internalType":"string"},{"name":"outcome","type":"uint8","internalType":"uint8"}],"outputs":[],"stateMutability":"nonpayable"},{"type":"function","name":"stake","inputs":[{"name":"marketId","type":"string","internalType":"string"},{"name":"side","type":"uint8","internalType":"uint8"},{"name":"amount","type":"uint256","internalType":"uint256"}],"outputs":[],"stateMutability":"nonpayable"},{"type":"function","name":"transferOwnership","inputs":[{"name":"newOwner","type":"address","internalType":"address"}],"outputs":[],"stateMutability":"nonpayable"},{"type":"function","name":"usdc","inputs":[],"outputs":[{"name":"","type":"address","internalType":"contract IERC20"}],"stateMutability":"view"},{"type":"event","name":"Claimed","inputs":[{"name":"marketId","type":"string","indexed":false,"internalType":"string"},{"name":"user","type":"address","indexed":false,"internalType":"address"},{"name":"amount","type":"uint256","indexed":false,"internalType":"uint256"}],"anonymous":false},{"type":"event","name":"MarketCreated","inputs":[{"name":"marketId","type":"string","indexed":false,"internalType":"string"},{"name":"category","type":"string","indexed":false,"internalType":"string"},{"name":"resolutionTime","type":"uint256","indexed":false,"internalType":"uint256"}],"anonymous":false},{"type":"event","name":"MarketResolved","inputs":[{"name":"marketId","type":"string","indexed":false,"internalType":"string"},{"name":"outcome","type":"uint8","indexed":false,"internalType":"uint8"}],"anonymous":false},{"type":"event","name":"OwnershipTransferred","inputs":[{"name":"previousOwner","type":"address","indexed":true,"internalType":"address"},{"name":"newOwner","type":"address","indexed":true,"internalType":"address"}],"anonymous":false},{"type":"event","name":"Staked","inputs":[{"name":"marketId","type":"string","indexed":false,"internalType":"string"},{"name":"user","type":"address","indexed":false,"internalType":"address"},{"name":"side","type":"uint8","indexed":false,"internalType":"uint8"},{"name":"amount","type":"uint256","indexed":false,"internalType":"uint256"}],"anonymous":false},{"type":"error","name":"OwnableInvalidOwner","inputs":[{"name":"owner","type":"address","internalType":"address"}]},{"type":"error","name":"OwnableUnauthorizedAccount","inputs":[{"name":"account","type":"address","internalType":"address"}]}],"bytecode":{"object":"0x608060405234801561000f575f5ffd5b5060405161263938038061263983398181016040528101906100319190610217565b335f73ffffffffffffffffffffffffffffffffffffffff168173ffffffffffffffffffffffffffffffffffffffff16036100a2575f6040517f1e4fbdf70000000000000000000000000000000000000000000000000000000081526004016100999190610251565b60405180910390fd5b6100b1816100f860201b60201c565b508060015f6101000a81548173ffffffffffffffffffffffffffffffffffffffff021916908373ffffffffffffffffffffffffffffffffffffffff1602179055505061026a565b5f5f5f9054906101000a900473ffffffffffffffffffffffffffffffffffffffff169050815f5f6101000a81548173ffffffffffffffffffffffffffffffffffffffff021916908373ffffffffffffffffffffffffffffffffffffffff1602179055508173ffffffffffffffffffffffffffffffffffffffff168173ffffffffffffffffffffffffffffffffffffffff167f8be0079c531659141344cd1fd0a4f28419497f9722a3daafe3b4186f6b6457e060405160405180910390a35050565b5f5ffd5b5f73ffffffffffffffffffffffffffffffffffffffff82169050919050565b5f6101e6826101bd565b9050919050565b6101f6816101dc565b8114610200575f5ffd5b50565b5f81519050610211816101ed565b92915050565b5f6020828403121561022c5761022b6101b9565b5b5f61023984828501610203565b91505092915050565b61024b816101dc565b82525050565b5f6020820190506102645f830184610242565b92915050565b6123c2806102775f395ff3fe608060405234801561000f575f5ffd5b50600436106100cd575f3560e01c80638e4821c51161008a578063efbda66111610064578063efbda6611461020f578063f2fde38b14610245578063f98b778314610261578063fdbcf1251461027d576100cd565b80638e4821c514610193578063ac2a067d146101af578063d3887994146101df576100cd565b80632ed25620146100d15780633e413bee146101015780635aa8ff151461011f578063715018a61461013b5780638bde0e01146101455780638da5cb5b14610175575b5f5ffd5b6100eb60048036038101906100e69190611551565b610299565b6040516100f891906115c5565b60405180910390f35b6101096102db565b6040516101169190611639565b60405180910390f35b61013960048036038101906101349190611688565b610300565b005b610143610426565b005b61015f600480360381019061015a9190611551565b610439565b60405161016c91906116fa565b60405180910390f35b61017d610471565b60405161018a9190611722565b60405180910390f35b6101ad60048036038101906101a89190611765565b610498565b005b6101c960048036038101906101c491906117d1565b6107e8565b6040516101d69190611945565b60405180910390f35b6101f960048036038101906101f49190611551565b610994565b60405161020691906116fa565b60405180910390f35b610229600480360381019061022491906117d1565b6109cc565b60405161023c97969594939291906119bc565b60405180910390f35b61025f600480360381019061025a9190611a37565b610b47565b005b61027b60048036038101906102769190611a62565b610bcb565b005b610297600480360381019061029291906117d1565b610cf4565b005b600582805160208101820180518482526020830160208501208183528095505050505050602052805f5260405f205f915091509054906101000a900460ff1681565b60015f9054906101000a900473ffffffffffffffffffffffffffffffffffffffff1681565b61030861121e565b6002826040516103189190611b24565b90815260200160405180910390206005015f9054906101000a900460ff1615610376576040517f08c379a000000000000000000000000000000000000000000000000000000000815260040161036d90611b84565b60405180910390fd5b60016002836040516103889190611b24565b90815260200160405180910390206005015f6101000a81548160ff021916908315150217905550806002836040516103c09190611b24565b908152602001604051809103902060050160016101000a81548160ff021916908360ff1602179055507f9dc5f3aa979166e3973169ba85cc4aff965cdd42156ea7225eb4b13cf11dd14c828260405161041a929190611ba2565b60405180910390a15050565b61042e61121e565b6104375f6112a5565b565b600382805160208101820180518482526020830160208501208183528095505050505050602052805f5260405f205f91509150505481565b5f5f5f9054906101000a900473ffffffffffffffffffffffffffffffffffffffff16905090565b6002836040516104a89190611b24565b90815260200160405180910390206005015f9054906101000a900460ff1615610506576040517f08c379a00000000000000000000000000000000000000000000000000000000081526004016104fd90611c1a565b60405180910390fd5b6002836040516105169190611b24565b9081526020016040518091039020600201544210610569576040517f08c379a000000000000000000000000000000000000000000000000000000000815260040161056090611c82565b60405180910390fd5b5f81116105ab576040517f08c379a00000000000000000000000000000000000000000000000000000000081526004016105a290611cea565b60405180910390fd5b60015f9054906101000a900473ffffffffffffffffffffffffffffffffffffffff1673ffffffffffffffffffffffffffffffffffffffff166323b872dd3330846040518463ffffffff1660e01b815260040161060993929190611d08565b6020604051808303815f875af1158015610625573d5f5f3e3d5ffd5b505050506040513d601f19601f820116820180604052508101906106499190611d67565b505f8260ff16036106ff57806002846040516106659190611b24565b90815260200160405180910390206003015f8282546106849190611dbf565b925050819055508060038460405161069c9190611b24565b90815260200160405180910390205f3373ffffffffffffffffffffffffffffffffffffffff1673ffffffffffffffffffffffffffffffffffffffff1681526020019081526020015f205f8282546106f39190611dbf565b925050819055506107a6565b806002846040516107109190611b24565b90815260200160405180910390206004015f82825461072f9190611dbf565b92505081905550806004846040516107479190611b24565b90815260200160405180910390205f3373ffffffffffffffffffffffffffffffffffffffff1673ffffffffffffffffffffffffffffffffffffffff1681526020019081526020015f205f82825461079e9190611dbf565b925050819055505b7ffb556f5c073bfd584ecae504eb726ff0af1ac2d030d08ffa0e8c612b2ac990b0833384846040516107db9493929190611df2565b60405180910390a1505050565b6107f061136d565b6002826040516108009190611b24565b90815260200160405180910390206040518060e00160405290815f8201805461082890611e69565b80601f016020809104026020016040519081016040528092919081815260200182805461085490611e69565b801561089f5780601f106108765761010080835404028352916020019161089f565b820191905f5260205f20905b81548152906001019060200180831161088257829003601f168201915b505050505081526020016001820180546108b890611e69565b80601f01602080910402602001604051908101604052809291908181526020018280546108e490611e69565b801561092f5780601f106109065761010080835404028352916020019161092f565b820191905f5260205f20905b81548152906001019060200180831161091257829003601f168201915b50505050508152602001600282015481526020016003820154815260200160048201548152602001600582015f9054906101000a900460ff161515151581526020016005820160019054906101000a900460ff1660ff1660ff16815250509050919050565b600482805160208101820180518482526020830160208501208183528095505050505050602052805f5260405f205f91509150505481565b6002818051602081018201805184825260208301602085012081835280955050505050505f91509050805f018054610a0390611e69565b80601f0160208091040260200160405190810160405280929190818152602001828054610a2f90611e69565b8015610a7a5780601f10610a5157610100808354040283529160200191610a7a565b820191905f5260205f20905b815481529060010190602001808311610a5d57829003601f168201915b505050505090806001018054610a8f90611e69565b80601f0160208091040260200160405190810160405280929190818152602001828054610abb90611e69565b8015610b065780601f10610add57610100808354040283529160200191610b06565b820191905f5260205f20905b815481529060010190602001808311610ae957829003601f168201915b505050505090806002015490806003015490806004015490806005015f9054906101000a900460ff16908060050160019054906101000a900460ff16905087565b610b4f61121e565b5f73ffffffffffffffffffffffffffffffffffffffff168173ffffffffffffffffffffffffffffffffffffffff1603610bbf575f6040517f1e4fbdf7000000000000000000000000000000000000000000000000000000008152600401610bb69190611722565b60405180910390fd5b610bc8816112a5565b50565b610bd361121e565b6040518060e001604052808481526020018381526020018281526020015f81526020015f81526020015f151581526020015f60ff16815250600284604051610c1b9190611b24565b90815260200160405180910390205f820151815f019081610c3c9190612041565b506020820151816001019081610c529190612041565b5060408201518160020155606082015181600301556080820151816004015560a0820151816005015f6101000a81548160ff02191690831515021790555060c08201518160050160016101000a81548160ff021916908360ff1602179055509050507f58de66e5e88bc31129cc8c1080ab8342d04f884dff43769c06dfd3023f5a5f76838383604051610ce793929190612110565b60405180910390a1505050565b5f600282604051610d059190611b24565b90815260200160405180910390206040518060e00160405290815f82018054610d2d90611e69565b80601f0160208091040260200160405190810160405280929190818152602001828054610d5990611e69565b8015610da45780601f10610d7b57610100808354040283529160200191610da4565b820191905f5260205f20905b815481529060010190602001808311610d8757829003601f168201915b50505050508152602001600182018054610dbd90611e69565b80601f0160208091040260200160405190810160405280929190818152602001828054610de990611e69565b8015610e345780601f10610e0b57610100808354040283529160200191610e34565b820191905f5260205f20905b815481529060010190602001808311610e1757829003601f168201915b50505050508152602001600282015481526020016003820154815260200160048201548152602001600582015f9054906101000a900460ff161515151581526020016005820160019054906101000a900460ff1660ff1660ff168152505090508060a00151610ed8576040517f08c379a0000000000000000000000000000000000000000000000000000000008152600401610ecf9061219d565b60405180910390fd5b600582604051610ee89190611b24565b90815260200160405180910390205f3373ffffffffffffffffffffffffffffffffffffffff1673ffffffffffffffffffffffffffffffffffffffff1681526020019081526020015f205f9054906101000a900460ff1615610f7e576040517f08c379a0000000000000000000000000000000000000000000000000000000008152600401610f7590612205565b60405180910390fd5b5f5f5f83608001518460600151610f959190611dbf565b90505f8460c0015160ff160361100d57600385604051610fb59190611b24565b90815260200160405180910390205f3373ffffffffffffffffffffffffffffffffffffffff1673ffffffffffffffffffffffffffffffffffffffff1681526020019081526020015f2054925083606001519150611071565b60048560405161101d9190611b24565b90815260200160405180910390205f3373ffffffffffffffffffffffffffffffffffffffff1673ffffffffffffffffffffffffffffffffffffffff1681526020019081526020015f20549250836080015191505b5f83116110b3576040517f08c379a00000000000000000000000000000000000000000000000000000000081526004016110aa9061226d565b60405180910390fd5b5f8282856110c1919061228b565b6110cb91906122f9565b905060016005876040516110df9190611b24565b90815260200160405180910390205f3373ffffffffffffffffffffffffffffffffffffffff1673ffffffffffffffffffffffffffffffffffffffff1681526020019081526020015f205f6101000a81548160ff02191690831515021790555060015f9054906101000a900473ffffffffffffffffffffffffffffffffffffffff1673ffffffffffffffffffffffffffffffffffffffff1663a9059cbb33836040518363ffffffff1660e01b815260040161119a929190612329565b6020604051808303815f875af11580156111b6573d5f5f3e3d5ffd5b505050506040513d601f19601f820116820180604052508101906111da9190611d67565b507f7ca58b3d3af286614421364e3dc07e3961a7ce97c19ab3be45fdc2ad13d0b97d86338360405161120e93929190612350565b60405180910390a1505050505050565b611226611366565b73ffffffffffffffffffffffffffffffffffffffff16611244610471565b73ffffffffffffffffffffffffffffffffffffffff16146112a357611267611366565b6040517f118cdaa700000000000000000000000000000000000000000000000000000000815260040161129a9190611722565b60405180910390fd5b565b5f5f5f9054906101000a900473ffffffffffffffffffffffffffffffffffffffff169050815f5f6101000a81548173ffffffffffffffffffffffffffffffffffffffff021916908373ffffffffffffffffffffffffffffffffffffffff1602179055508173ffffffffffffffffffffffffffffffffffffffff168173ffffffffffffffffffffffffffffffffffffffff167f8be0079c531659141344cd1fd0a4f28419497f9722a3daafe3b4186f6b6457e060405160405180910390a35050565b5f33905090565b6040518060e0016040528060608152602001606081526020015f81526020015f81526020015f81526020015f151581526020015f60ff1681525090565b5f604051905090565b5f5ffd5b5f5ffd5b5f5ffd5b5f5ffd5b5f601f19601f8301169050919050565b7f4e487b71000000000000000000000000000000000000000000000000000000005f52604160045260245ffd5b611409826113c3565b810181811067ffffffffffffffff82111715611428576114276113d3565b5b80604052505050565b5f61143a6113aa565b90506114468282611400565b919050565b5f67ffffffffffffffff821115611465576114646113d3565b5b61146e826113c3565b9050602081019050919050565b828183375f83830152505050565b5f61149b6114968461144b565b611431565b9050828152602081018484840111156114b7576114b66113bf565b5b6114c284828561147b565b509392505050565b5f82601f8301126114de576114dd6113bb565b5b81356114ee848260208601611489565b91505092915050565b5f73ffffffffffffffffffffffffffffffffffffffff82169050919050565b5f611520826114f7565b9050919050565b61153081611516565b811461153a575f5ffd5b50565b5f8135905061154b81611527565b92915050565b5f5f60408385031215611567576115666113b3565b5b5f83013567ffffffffffffffff811115611584576115836113b7565b5b611590858286016114ca565b92505060206115a18582860161153d565b9150509250929050565b5f8115159050919050565b6115bf816115ab565b82525050565b5f6020820190506115d85f8301846115b6565b92915050565b5f819050919050565b5f6116016115fc6115f7846114f7565b6115de565b6114f7565b9050919050565b5f611612826115e7565b9050919050565b5f61162382611608565b9050919050565b61163381611619565b82525050565b5f60208201905061164c5f83018461162a565b92915050565b5f60ff82169050919050565b61166781611652565b8114611671575f5ffd5b50565b5f813590506116828161165e565b92915050565b5f5f6040838503121561169e5761169d6113b3565b5b5f83013567ffffffffffffffff8111156116bb576116ba6113b7565b5b6116c7858286016114ca565b92505060206116d885828601611674565b9150509250929050565b5f819050919050565b6116f4816116e2565b82525050565b5f60208201905061170d5f8301846116eb565b92915050565b61171c81611516565b82525050565b5f6020820190506117355f830184611713565b92915050565b611744816116e2565b811461174e575f5ffd5b50565b5f8135905061175f8161173b565b92915050565b5f5f5f6060848603121561177c5761177b6113b3565b5b5f84013567ffffffffffffffff811115611799576117986113b7565b5b6117a5868287016114ca565b93505060206117b686828701611674565b92505060406117c786828701611751565b9150509250925092565b5f602082840312156117e6576117e56113b3565b5b5f82013567ffffffffffffffff811115611803576118026113b7565b5b61180f848285016114ca565b91505092915050565b5f81519050919050565b5f82825260208201905092915050565b8281835e5f83830152505050565b5f61184a82611818565b6118548185611822565b9350611864818560208601611832565b61186d816113c3565b840191505092915050565b611881816116e2565b82525050565b611890816115ab565b82525050565b61189f81611652565b82525050565b5f60e083015f8301518482035f8601526118bf8282611840565b915050602083015184820360208601526118d98282611840565b91505060408301516118ee6040860182611878565b5060608301516119016060860182611878565b5060808301516119146080860182611878565b5060a083015161192760a0860182611887565b5060c083015161193a60c0860182611896565b508091505092915050565b5f6020820190508181035f83015261195d81846118a5565b905092915050565b5f82825260208201905092915050565b5f61197f82611818565b6119898185611965565b9350611999818560208601611832565b6119a2816113c3565b840191505092915050565b6119b681611652565b82525050565b5f60e0820190508181035f8301526119d4818a611975565b905081810360208301526119e88189611975565b90506119f760408301886116eb565b611a0460608301876116eb565b611a1160808301866116eb565b611a1e60a08301856115b6565b611a2b60c08301846119ad565b98975050505050505050565b5f60208284031215611a4c57611a4b6113b3565b5b5f611a598482850161153d565b91505092915050565b5f5f5f60608486031215611a7957611a786113b3565b5b5f84013567ffffffffffffffff811115611a9657611a956113b7565b5b611aa2868287016114ca565b935050602084013567ffffffffffffffff811115611ac357611ac26113b7565b5b611acf868287016114ca565b9250506040611ae086828701611751565b9150509250925092565b5f81905092915050565b5f611afe82611818565b611b088185611aea565b9350611b18818560208601611832565b80840191505092915050565b5f611b2f8284611af4565b915081905092915050565b7f416c7265616479207265736f6c766564000000000000000000000000000000005f82015250565b5f611b6e601083611965565b9150611b7982611b3a565b602082019050919050565b5f6020820190508181035f830152611b9b81611b62565b9050919050565b5f6040820190508181035f830152611bba8185611975565b9050611bc960208301846119ad565b9392505050565b7f4d61726b6574207265736f6c76656400000000000000000000000000000000005f82015250565b5f611c04600f83611965565b9150611c0f82611bd0565b602082019050919050565b5f6020820190508181035f830152611c3181611bf8565b9050919050565b7f4d61726b657420636c6f736564000000000000000000000000000000000000005f82015250565b5f611c6c600d83611965565b9150611c7782611c38565b602082019050919050565b5f6020820190508181035f830152611c9981611c60565b9050919050565b7f416d6f756e74206d757374206265203e203000000000000000000000000000005f82015250565b5f611cd4601283611965565b9150611cdf82611ca0565b602082019050919050565b5f6020820190508181035f830152611d0181611cc8565b9050919050565b5f606082019050611d1b5f830186611713565b611d286020830185611713565b611d3560408301846116eb565b949350505050565b611d46816115ab565b8114611d50575f5ffd5b50565b5f81519050611d6181611d3d565b92915050565b5f60208284031215611d7c57611d7b6113b3565b5b5f611d8984828501611d53565b91505092915050565b7f4e487b71000000000000000000000000000000000000000000000000000000005f52601160045260245ffd5b5f611dc9826116e2565b9150611dd4836116e2565b9250828201905080821115611dec57611deb611d92565b5b92915050565b5f6080820190508181035f830152611e0a8187611975565b9050611e196020830186611713565b611e2660408301856119ad565b611e3360608301846116eb565b95945050505050565b7f4e487b71000000000000000000000000000000000000000000000000000000005f52602260045260245ffd5b5f6002820490506001821680611e8057607f821691505b602082108103611e9357611e92611e3c565b5b50919050565b5f819050815f5260205f209050919050565b5f6020601f8301049050919050565b5f82821b905092915050565b5f60088302611ef57fffffffffffffffffffffffffffffffffffffffffffffffffffffffffffffffff82611eba565b611eff8683611eba565b95508019841693508086168417925050509392505050565b5f611f31611f2c611f27846116e2565b6115de565b6116e2565b9050919050565b5f819050919050565b611f4a83611f17565b611f5e611f5682611f38565b848454611ec6565b825550505050565b5f5f905090565b611f75611f66565b611f80818484611f41565b505050565b5f5b82811015611fa657611f9b5f828401611f6d565b600181019050611f87565b505050565b601f821115611ff95782821115611ff857611fc581611e99565b611fce83611eab565b611fd785611eab565b6020861015611fe4575f90505b808301611ff382840382611f85565b505050505b5b505050565b5f82821c905092915050565b5f6120195f1984600802611ffe565b1980831691505092915050565b5f612031838361200a565b9150826002028217905092915050565b61204a82611818565b67ffffffffffffffff811115612063576120626113d3565b5b61206d8254611e69565b612078828285611fab565b5f60209050601f8311600181146120a9575f8415612097578287015190505b6120a18582612026565b865550612108565b601f1984166120b786611e99565b5f5b828110156120de578489015182556001820191506020850194506020810190506120b9565b868310156120fb57848901516120f7601f89168261200a565b8355505b6001600288020188555050505b505050505050565b5f6060820190508181035f8301526121288186611975565b9050818103602083015261213c8185611975565b905061214b60408301846116eb565b949350505050565b7f4e6f74207265736f6c76656400000000000000000000000000000000000000005f82015250565b5f612187600c83611965565b915061219282612153565b602082019050919050565b5f6020820190508181035f8301526121b48161217b565b9050919050565b7f416c726561647920636c61696d656400000000000000000000000000000000005f82015250565b5f6121ef600f83611965565b91506121fa826121bb565b602082019050919050565b5f6020820190508181035f83015261221c816121e3565b9050919050565b7f4e6f2077696e6e696e67207374616b65000000000000000000000000000000005f82015250565b5f612257601083611965565b915061226282612223565b602082019050919050565b5f6020820190508181035f8301526122848161224b565b9050919050565b5f612295826116e2565b91506122a0836116e2565b92508282026122ae816116e2565b915082820484148315176122c5576122c4611d92565b5b5092915050565b7f4e487b71000000000000000000000000000000000000000000000000000000005f52601260045260245ffd5b5f612303826116e2565b915061230e836116e2565b92508261231e5761231d6122cc565b5b828204905092915050565b5f60408201905061233c5f830185611713565b61234960208301846116eb565b9392505050565b5f6060820190508181035f8301526123688186611975565b90506123776020830185611713565b61238460408301846116eb565b94935050505056fea26469706673582212201587b8490311e1e18e5c59cf992495761e80e30c3d83662091181c291b909a5d64736f6c63430008230033","linkReferences":{}},"methodIdentifiers":{"claimWinnings(string)":"fdbcf125","claimed(string,address)":"2ed25620","createMarket(string,string,uint256)":"f98b7783","fadeStakes(string,address)":"d3887994","followStakes(string,address)":"8bde0e01","getMarket(string)":"ac2a067d","markets(string)":"efbda661","owner()":"8da5cb5b","renounceOwnership()":"715018a6","resolveMarket(string,uint8)":"5aa8ff15","stake(string,uint8,uint256)":"8e4821c5","transferOwnership(address)":"f2fde38b","usdc()":"3e413bee"},"id":24}