{"abi":[{"type":"constructor","inputs":[],"stateMutability":"nonpayable"},{"type":"function","name":"approve","inputs":[{"name":"to","type":"address","internalType":"address"},{"name":"tokenId","type":"uint256","internalType":"uint256"}],"outputs":[],"stateMutability":"nonpayable"},{"type":"function","name":"balanceOf","inputs":[{"name":"owner","type":"address","internalType":"address"}],"outputs":[{"name":"","type":"uint256","internalType":"uint256"}],"stateMutability":"view"},{"type":"function","name":"getApproved","inputs":[{"name":"tokenId","type":"uint256","internalType":"uint256"}],"outputs":[{"name":"","type":"address","internalType":"address"}],"stateMutability":"view"},{"type":"function","name":"hasMinted","inputs":[{"name":"","type":"address","internalType":"address"}],"outputs":[{"name":"","type":"bool","internalType":"bool"}],"stateMutability":"view"},{"type":"function","name":"hasPass","inputs":[{"name":"user","type":"address","internalType":"address"}],"outputs":[{"name":"","type":"bool","internalType":"bool"}],"stateMutability":"view"},{"type":"function","name":"isApprovedForAll","inputs":[{"name":"owner","type":"address","internalType":"address"},{"name":"operator","type":"address","internalType":"address"}],"outputs":[{"name":"","type":"bool","internalType":"bool"}],"stateMutability":"view"},{"type":"function","name":"mint","inputs":[],"outputs":[{"name":"","type":"uint256","internalType":"uint256"}],"stateMutability":"nonpayable"},{"type":"function","name":"name","inputs":[],"outputs":[{"name":"","type":"string","internalType":"string"}],"stateMutability":"view"},{"type":"function","name":"owner","inputs":[],"outputs":[{"name":"","type":"address","internalType":"address"}],"stateMutability":"view"},{"type":"function","name":"ownerOf","inputs":[{"name":"tokenId","type":"uint256","internalType":"uint256"}],"outputs":[{"name":"","type":"address","internalType":"address"}],"stateMutability":"view"},{"type":"function","name":"renounceOwnership","inputs":[],"outputs":[],"stateMutability":"nonpayable"},{"type":"function","name":"safeTransferFrom","inputs":[{"name":"from","type":"address","internalType":"address"},{"name":"to","type":"address","internalType":"address"},{"name":"tokenId","type":"uint256","internalType":"uint256"}],"outputs":[],"stateMutability":"nonpayable"},{"type":"function","name":"safeTransferFrom","inputs":[{"name":"from","type":"address","internalType":"address"},{"name":"to","type":"address","internalType":"address"},{"name":"tokenId","type":"uint256","internalType":"uint256"},{"name":"data","type":"bytes","internalType":"bytes"}],"outputs":[],"stateMutability":"nonpayable"},{"type":"function","name":"setApprovalForAll","inputs":[{"name":"operator","type":"address","internalType":"address"},{"name":"approved","type":"bool","internalType":"bool"}],"outputs":[],"stateMutability":"nonpayable"},{"type":"function","name":"supportsInterface","inputs":[{"name":"interfaceId","type":"bytes4","internalType":"bytes4"}],"outputs":[{"name":"","type":"bool","internalType":"bool"}],"stateMutability":"view"},{"type":"function","name":"symbol","inputs":[],"outputs":[{"name":"","type":"string","internalType":"string"}],"stateMutability":"view"},{"type":"function","name":"tokenURI","inputs":[{"name":"tokenId","type":"uint256","internalType":"uint256"}],"outputs":[{"name":"","type":"string","internalType":"string"}],"stateMutability":"view"},{"type":"function","name":"transferFrom","inputs":[{"name":"from","type":"address","internalType":"address"},{"name":"to","type":"address","internalType":"address"},{"name":"tokenId","type":"uint256","internalType":"uint256"}],"outputs":[],"stateMutability":"nonpayable"},{"type":"function","name":"transferOwnership","inputs":[{"name":"newOwner","type":"address","internalType":"address"}],"outputs":[],"stateMutability":"nonpayable"},{"type":"event","name":"Approval","inputs":[{"name":"owner","type":"address","indexed":true,"internalType":"address"},{"name":"approved","type":"address","indexed":true,"internalType":"address"},{"name":"tokenId","type":"uint256","indexed":true,"internalType":"uint256"}],"anonymous":false},{"type":"event","name":"ApprovalForAll","inputs":[{"name":"owner","type":"address","indexed":true,"internalType":"address"},{"name":"operator","type":"address","indexed":true,"internalType":"address"},{"name":"approved","type":"bool","indexed":false,"internalType":"bool"}],"anonymous":false},{"type":"event","name":"OwnershipTransferred","inputs":[{"name":"previousOwner","type":"address","indexed":true,"internalType":"address"},{"name":"newOwner","type":"address","indexed":true,"internalType":"address"}],"anonymous":false},{"type":"event","name":"PassMinted","inputs":[{"name":"user","type":"address","indexed":true,"internalType":"address"},{"name":"tokenId","type":"uint256","indexed":true,"internalType":"uint256"}],"anonymous":false},{"type":"event","name":"Transfer","inputs":[{"name":"from","type":"address","indexed":true,"internalType":"address"},{"name":"to","type":"address","indexed":true,"internalType":"address"},{"name":"tokenId","type":"uint256","indexed":true,"internalType":"uint256"}],"anonymous":false},{"type":"error","name":"ERC721IncorrectOwner","inputs":[{"name":"sender","type":"address","internalType":"address"},{"name":"tokenId","type":"uint256","internalType":"uint256"},{"name":"owner","type":"address","internalType":"address"}]},{"type":"error","name":"ERC721InsufficientApproval","inputs":[{"name":"operator","type":"address","internalType":"address"},{"name":"tokenId","type":"uint256","internalType":"uint256"}]},{"type":"error","name":"ERC721InvalidApprover","inputs":[{"name":"approver","type":"address","internalType":"address"}]},{"type":"error","name":"ERC721InvalidOperator","inputs":[{"name":"operator","type":"address","internalType":"address"}]},{"type":"error","name":"ERC721InvalidOwner","inputs":[{"name":"owner","type":"address","internalType":"address"}]},{"type":"error","name":"ERC721InvalidReceiver","inputs":[{"name":"receiver","type":"address","internalType":"address"}]},{"type":"error","name":"ERC721InvalidSender","inputs":[{"name":"sender","type":"address","internalType":"address"}]},{"type":"error","name":"ERC721NonexistentToken","inputs":[{"name":"tokenId","type":"uint256","internalType":"uint256"}]},{"type":"error","name":"OwnableInvalidOwner","inputs":[{"name":"owner","type":"address","internalType":"address"}]},{"type":"error","name":"OwnableUnauthorizedAccount","inputs":[{"name":"account","type":"address","internalType":"address"}]}],"bytecode":{"object":"0x608060405234801561000f575f5ffd5b50336040518060400160405280601981526020017f4172635369676e616c2050726564696374696f6e205061737300000000000000815250604051806040016040528060068152602001654d4d5041535360d01b815250815f908161007491906101b4565b50600161008182826101b4565b5050506001600160a01b0381166100b157604051631e4fbdf760e01b81525f600482015260240160405180910390fd5b6100ba816100c0565b50610272565b600680546001600160a01b038381166001600160a01b0319831681179093556040519116919082907f8be0079c531659141344cd1fd0a4f28419497f9722a3daafe3b4186f6b6457e0905f90a35050565b634e487b7160e01b5f52604160045260245ffd5b600181811c9082168061013957607f821691505b60208210810361015757634e487b7160e01b5f52602260045260245ffd5b50919050565b601f8211156101af57828211156101af57805f5260205f20601f840160051c602085101561018857505f5b90810190601f840160051c035f5b818110156101ab575f83820155600101610196565b5050505b505050565b81516001600160401b038111156101cd576101cd610111565b6101e1816101db8454610125565b8461015d565b6020601f821160018114610213575f83156101fc5750848201515b5f19600385901b1c1916600184901b17845561026b565b5f84815260208120601f198516915b828110156102425787850151825560209485019460019092019101610222565b508482101561025f57868401515f19600387901b60f8161c191681555b505060018360011b0184555b5050505050565b6111cd8061027f5f395ff3fe608060405234801561000f575f5ffd5b506004361061011c575f3560e01c806370a08231116100a9578063a22cb4651161006e578063a22cb46514610255578063b88d4fde14610268578063c87b56dd1461027b578063e985e9c51461028e578063f2fde38b146102a1575f5ffd5b806370a082311461020e578063715018a6146102215780638da5cb5b14610229578063937cde201461023a57806395d89b411461024d575f5ffd5b80631249c58b116100ef5780631249c58b1461019d57806323b872dd146101b357806338e21cce146101c657806342842e0e146101e85780636352211e146101fb575f5ffd5b806301ffc9a71461012057806306fdde0314610148578063081812fc1461015d578063095ea7b314610188575b5f5ffd5b61013361012e366004610e56565b6102b4565b60405190151581526020015b60405180910390f35b610150610305565b60405161013f9190610e9f565b61017061016b366004610eb1565b610394565b6040516001600160a01b03909116815260200161013f565b61019b610196366004610ee3565b6103bb565b005b6101a56103ca565b60405190815260200161013f565b61019b6101c1366004610f0b565b610490565b6101336101d4366004610f45565b60086020525f908152604090205460ff1681565b61019b6101f6366004610f0b565b610519565b610170610209366004610eb1565b610538565b6101a561021c366004610f45565b610542565b61019b610587565b6006546001600160a01b0316610170565b610133610248366004610f45565b61059a565b6101506105cc565b61019b610263366004610f5e565b6105db565b61019b610276366004610fab565b6105e6565b610150610289366004610eb1565b6105fe565b61013361029c366004611088565b61066f565b61019b6102af366004610f45565b61069c565b5f6001600160e01b031982166380ac58cd60e01b14806102e457506001600160e01b03198216635b5e139f60e01b145b806102ff57506301ffc9a760e01b6001600160e01b03198316145b92915050565b60605f8054610313906110b9565b80601f016020809104026020016040519081016040528092919081815260200182805461033f906110b9565b801561038a5780601f106103615761010080835404028352916020019161038a565b820191905f5260205f20905b81548152906001019060200180831161036d57829003601f168201915b5050505050905090565b5f61039e826106d9565b505f828152600460205260409020546001600160a01b03166102ff565b6103c6828233610711565b5050565b335f9081526008602052604081205460ff16156104265760405162461bcd60e51b8152602060048201526015602482015274416c7265616479206d696e7465642061207061737360581b60448201526064015b60405180910390fd5b600780549081905f610437836110f1565b9091555050335f818152600860205260409020805460ff1916600117905561045f908261071e565b604051819033907f35366f116e63e323da291fbd01cfcd53069179726cdc03edbd7f8ae1cf86a7f2905f90a3919050565b6001600160a01b0382166104b957604051633250574960e11b81525f600482015260240161041d565b5f6104c5838333610737565b9050836001600160a01b0316816001600160a01b031614610513576040516364283d7b60e01b81526001600160a01b038086166004830152602482018490528216604482015260640161041d565b50505050565b61053383838360405180602001604052805f8152506105e6565b505050565b5f6102ff826106d9565b5f6001600160a01b03821661056c576040516322718ad960e21b81525f600482015260240161041d565b506001600160a01b03165f9081526003602052604090205490565b61058f610829565b6105985f610856565b565b6001600160a01b0381165f9081526008602052604081205460ff16806102ff57505f6105c583610542565b1192915050565b606060018054610313906110b9565b6103c63383836108a7565b6105f1848484610490565b610513338585858561096e565b6060610609826106d9565b505f61061f60408051602081019091525f815290565b90505f81511161063d5760405180602001604052805f815250610668565b8061064784610a96565b60405160200161065892919061112c565b6040516020818303038152906040525b9392505050565b6001600160a01b039182165f90815260056020908152604080832093909416825291909152205460ff1690565b6106a4610829565b6001600160a01b0381166106cd57604051631e4fbdf760e01b81525f600482015260240161041d565b6106d681610856565b50565b5f818152600260205260408120546001600160a01b0316806102ff57604051637e27328960e01b81526004810184905260240161041d565b6105338383836001610b26565b6103c6828260405180602001604052805f815250610c2a565b5f828152600260205260408120546001600160a01b039081169083161561076357610763818486610c41565b6001600160a01b0381161561079d5761077e5f855f5f610b26565b6001600160a01b0381165f90815260036020526040902080545f190190555b6001600160a01b038516156107cb576001600160a01b0385165f908152600360205260409020805460010190555b5f8481526002602052604080822080546001600160a01b0319166001600160a01b0389811691821790925591518793918516917fddf252ad1be2c89b69c2b068fc378daa952ba7f163c4a11628f55a4df523b3ef91a4949350505050565b6006546001600160a01b031633146105985760405163118cdaa760e01b815233600482015260240161041d565b600680546001600160a01b038381166001600160a01b0319831681179093556040519116919082907f8be0079c531659141344cd1fd0a4f28419497f9722a3daafe3b4186f6b6457e0905f90a35050565b6001600160a01b0383166108d05760405163a9fbf51f60e01b81525f600482015260240161041d565b6001600160a01b03821661090257604051630b61174360e31b81526001600160a01b038316600482015260240161041d565b6001600160a01b038381165f81815260056020908152604080832094871680845294825291829020805460ff191686151590811790915591519182527f17307eab39ab6107e8899845ad3d59bd9653f200f220920489ca2b5937696c31910160405180910390a3505050565b6001600160a01b0383163b15610a8f57604051630a85bd0160e11b81526001600160a01b0384169063150b7a02906109b0908890889087908790600401611140565b6020604051808303815f875af19250505080156109ea575060408051601f3d908101601f191682019092526109e79181019061117c565b60015b610a51573d808015610a17576040519150601f19603f3d011682016040523d82523d5f602084013e610a1c565b606091505b5080515f03610a4957604051633250574960e11b81526001600160a01b038516600482015260240161041d565b805160208201fd5b6001600160e01b03198116630a85bd0160e11b14610a8d57604051633250574960e11b81526001600160a01b038516600482015260240161041d565b505b5050505050565b60605f610aa283610ca5565b60010190505f8167ffffffffffffffff811115610ac157610ac1610f97565b6040519080825280601f01601f191660200182016040528015610aeb576020820181803683370190505b5090508181016020015b5f19016f181899199a1a9b1b9c1cb0b131b232b360811b600a86061a8153600a8504945084610af557509392505050565b8080610b3a57506001600160a01b03821615155b15610bfb575f610b49846106d9565b90506001600160a01b03831615801590610b755750826001600160a01b0316816001600160a01b031614155b8015610b885750610b86818461066f565b155b15610bb15760405163a9fbf51f60e01b81526001600160a01b038416600482015260240161041d565b8115610bf95783856001600160a01b0316826001600160a01b03167f8c5be1e5ebec7d5bd14f71427d1e84f3dd0314c0f7b2291e5b200ac8c7c3b92560405160405180910390a45b505b50505f90815260046020526040902080546001600160a01b0319166001600160a01b0392909216919091179055565b610c348383610d7c565b610533335f85858561096e565b610c4c838383610ddd565b610533576001600160a01b038316610c7a57604051637e27328960e01b81526004810182905260240161041d565b60405163177e802f60e01b81526001600160a01b03831660048201526024810182905260440161041d565b5f8072184f03e93ff9f4daa797ed6e38ed64bf6a1f0160401b8310610ce35772184f03e93ff9f4daa797ed6e38ed64bf6a1f0160401b830492506040015b6d04ee2d6d415b85acef81000000008310610d0f576d04ee2d6d415b85acef8100000000830492506020015b662386f26fc100008310610d2d57662386f26fc10000830492506010015b6305f5e1008310610d45576305f5e100830492506008015b6127108310610d5957612710830492506004015b60648310610d6b576064830492506002015b600a83106102ff5760010192915050565b6001600160a01b038216610da557604051633250574960e11b81525f600482015260240161041d565b5f610db183835f610737565b90506001600160a01b03811615610533576040516339e3563760e11b81525f600482015260240161041d565b5f6001600160a01b03831615801590610e395750826001600160a01b0316846001600160a01b03161480610e165750610e16848461066f565b80610e3957505f828152600460205260409020546001600160a01b038481169116145b949350505050565b6001600160e01b0319811681146106d6575f5ffd5b5f60208284031215610e66575f5ffd5b813561066881610e41565b5f81518084528060208401602086015e5f602082860101526020601f19601f83011685010191505092915050565b602081525f6106686020830184610e71565b5f60208284031215610ec1575f5ffd5b5035919050565b80356001600160a01b0381168114610ede575f5ffd5b919050565b5f5f60408385031215610ef4575f5ffd5b610efd83610ec8565b946020939093013593505050565b5f5f5f60608486031215610f1d575f5ffd5b610f2684610ec8565b9250610f3460208501610ec8565b929592945050506040919091013590565b5f60208284031215610f55575f5ffd5b61066882610ec8565b5f5f60408385031215610f6f575f5ffd5b610f7883610ec8565b915060208301358015158114610f8c575f5ffd5b809150509250929050565b634e487b7160e01b5f52604160045260245ffd5b5f5f5f5f60808587031215610fbe575f5ffd5b610fc785610ec8565b9350610fd560208601610ec8565b925060408501359150606085013567ffffffffffffffff811115610ff7575f5ffd5b8501601f81018713611007575f5ffd5b803567ffffffffffffffff81111561102157611021610f97565b604051601f8201601f19908116603f0116810167ffffffffffffffff8111828210171561105057611050610f97565b604052818152828201602001891015611067575f5ffd5b816020840160208301375f6020838301015280935050505092959194509250565b5f5f60408385031215611099575f5ffd5b6110a283610ec8565b91506110b060208401610ec8565b90509250929050565b600181811c908216806110cd57607f821691505b6020821081036110eb57634e487b7160e01b5f52602260045260245ffd5b50919050565b5f6001820161110e57634e487b7160e01b5f52601160045260245ffd5b5060010190565b5f81518060208401855e5f93019283525090919050565b5f610e3961113a8386611115565b84611115565b6001600160a01b03858116825284166020820152604081018390526080606082018190525f9061117290830184610e71565b9695505050505050565b5f6020828403121561118c575f5ffd5b815161066881610e4156fea2646970667358221220cee8f9e1e7cc4f59d60123931d74d2158feda07704c51fc8be365a14968f198b64736f6c63430008230033","linkReferences":{}},"methodIdentifiers":{"approve(address,uint256)":"095ea7b3","balanceOf(address)":"70a08231","getApproved(uint256)":"081812fc","hasMinted(address)":"38e21cce","hasPass(address)":"937cde20","isApprovedForAll(address,address)":"e985e9c5","mint()":"1249c58b","name()":"06fdde03","owner()":"8da5cb5b","ownerOf(uint256)":"6352211e","renounceOwnership()":"715018a6","safeTransferFrom(address,address,uint256)":"42842e0e","safeTransferFrom(address,address,uint256,bytes)":"b88d4fde","setApprovalForAll(address,bool)":"a22cb465","supportsInterface(bytes4)":"01ffc9a7","symbol()":"95d89b41","tokenURI(uint256)":"c87b56dd","transferFrom(address,address,uint256)":"23b872dd","transferOwnership(address)":"f2fde38b"},"id":40}