{"abi":[{"type":"constructor","inputs":[],"stateMutability":"nonpayable"},{"type":"function","name":"approve","inputs":[{"name":"to","type":"address","internalType":"address"},{"name":"tokenId","type":"uint256","internalType":"uint256"}],"outputs":[],"stateMutability":"nonpayable"},{"type":"function","name":"balanceOf","inputs":[{"name":"owner","type":"address","internalType":"address"}],"outputs":[{"name":"","type":"uint256","internalType":"uint256"}],"stateMutability":"view"},{"type":"function","name":"getApproved","inputs":[{"name":"tokenId","type":"uint256","internalType":"uint256"}],"outputs":[{"name":"","type":"address","internalType":"address"}],"stateMutability":"view"},{"type":"function","name":"hasMinted","inputs":[{"name":"","type":"address","internalType":"address"}],"outputs":[{"name":"","type":"bool","internalType":"bool"}],"stateMutability":"view"},{"type":"function","name":"hasPass","inputs":[{"name":"user","type":"address","internalType":"address"}],"outputs":[{"name":"","type":"bool","internalType":"bool"}],"stateMutability":"view"},{"type":"function","name":"isApprovedForAll","inputs":[{"name":"owner","type":"address","internalType":"address"},{"name":"operator","type":"address","internalType":"address"}],"outputs":[{"name":"","type":"bool","internalType":"bool"}],"stateMutability":"view"},{"type":"function","name":"mint","inputs":[],"outputs":[{"name":"","type":"uint256","internalType":"uint256"}],"stateMutability":"nonpayable"},{"type":"function","name":"name","inputs":[],"outputs":[{"name":"","type":"string","internalType":"string"}],"stateMutability":"view"},{"type":"function","name":"owner","inputs":[],"outputs":[{"name":"","type":"address","internalType":"address"}],"stateMutability":"view"},{"type":"function","name":"ownerOf","inputs":[{"name":"tokenId","type":"uint256","internalType":"uint256"}],"outputs":[{"name":"","type":"address","internalType":"address"}],"stateMutability":"view"},{"type":"function","name":"renounceOwnership","inputs":[],"outputs":[],"stateMutability":"nonpayable"},{"type":"function","name":"safeTransferFrom","inputs":[{"name":"from","type":"address","internalType":"address"},{"name":"to","type":"address","internalType":"address"},{"name":"tokenId","type":"uint256","internalType":"uint256"}],"outputs":[],"stateMutability":"nonpayable"},{"type":"function","name":"safeTransferFrom","inputs":[{"name":"from","type":"address","internalType":"address"},{"name":"to","type":"address","internalType":"address"},{"name":"tokenId","type":"uint256","internalType":"uint256"},{"name":"data","type":"bytes","internalType":"bytes"}],"outputs":[],"stateMutability":"nonpayable"},{"type":"function","name":"setApprovalForAll","inputs":[{"name":"operator","type":"address","internalType":"address"},{"name":"approved","type":"bool","internalType":"bool"}],"outputs":[],"stateMutability":"nonpayable"},{"type":"function","name":"supportsInterface","inputs":[{"name":"interfaceId","type":"bytes4","internalType":"bytes4"}],"outputs":[{"name":"","type":"bool","internalType":"bool"}],"stateMutability":"view"},{"type":"function","name":"symbol","inputs":[],"outputs":[{"name":"","type":"string","internalType":"string"}],"stateMutability":"view"},{"type":"function","name":"tokenURI","inputs":[{"name":"tokenId","type":"uint256","internalType":"uint256"}],"outputs":[{"name":"","type":"string","internalType":"string"}],"stateMutability":"view"},{"type":"function","name":"transferFrom","inputs":[{"name":"from","type":"address","internalType":"address"},{"name":"to","type":"address","internalType":"address"},{"name":"tokenId","type":"uint256","internalType":"uint256"}],"outputs":[],"stateMutability":"nonpayable"},{"type":"function","name":"transferOwnership","inputs":[{"name":"newOwner","type":"address","internalType":"address"}],"outputs":[],"stateMutability":"nonpayable"},{"type":"event","name":"Approval","inputs":[{"name":"owner","type":"address","indexed":true,"internalType":"address"},{"name":"approved","type":"address","indexed":true,"internalType":"address"},{"name":"tokenId","type":"uint256","indexed":true,"internalType":"uint256"}],"anonymous":false},{"type":"event","name":"ApprovalForAll","inputs":[{"name":"owner","type":"address","indexed":true,"internalType":"address"},{"name":"operator","type":"address","indexed":true,"internalType":"address"},{"name":"approved","type":"bool","indexed":false,"internalType":"bool"}],"anonymous":false},{"type":"event","name":"OwnershipTransferred","inputs":[{"name":"previousOwner","type":"address","indexed":true,"internalType":"address"},{"name":"newOwner","type":"address","indexed":true,"internalType":"address"}],"anonymous":false},{"type":"event","name":"PassMinted","inputs":[{"name":"user","type":"address","indexed":true,"internalType":"address"},{"name":"tokenId","type":"uint256","indexed":true,"internalType":"uint256"}],"anonymous":false},{"type":"event","name":"Transfer","inputs":[{"name":"from","type":"address","indexed":true,"internalType":"address"},{"name":"to","type":"address","indexed":true,"internalType":"address"},{"name":"tokenId","type":"uint256","indexed":true,"internalType":"uint256"}],"anonymous":false},{"type":"error","name":"ERC721IncorrectOwner","inputs":[{"name":"sender","type":"address","internalType":"address"},{"name":"tokenId","type":"uint256","internalType":"uint256"},{"name":"owner","type":"address","internalType":"address"}]},{"type":"error","name":"ERC721InsufficientApproval","inputs":[{"name":"operator","type":"address","internalType":"address"},{"name":"tokenId","type":"uint256","internalType":"uint256"}]},{"type":"error","name":"ERC721InvalidApprover","inputs":[{"name":"approver","type":"address","internalType":"address"}]},{"type":"error","name":"ERC721InvalidOperator","inputs":[{"name":"operator","type":"address","internalType":"address"}]},{"type":"error","name":"ERC721InvalidOwner","inputs":[{"name":"owner","type":"address","internalType":"address"}]},{"type":"error","name":"ERC721InvalidReceiver","inputs":[{"name":"receiver","type":"address","internalType":"address"}]},{"type":"error","name":"ERC721InvalidSender","inputs":[{"name":"sender","type":"address","internalType":"address"}]},{"type":"error","name":"ERC721NonexistentToken","inputs":[{"name":"tokenId","type":"uint256","internalType":"uint256"}]},{"type":"error","name":"OwnableInvalidOwner","inputs":[{"name":"owner","type":"address","internalType":"address"}]},{"type":"error","name":"OwnableUnauthorizedAccount","inputs":[{"name":"account","type":"address","internalType":"address"}]}],"bytecode":{"object":"0x608060405234801561000f575f5ffd5b50336040518060400160405280601981526020017f4d617463684d696e642050726564696374696f6e2050617373000000000000008152506040518060400160405280600681526020017f4d4d504153530000000000000000000000000000000000000000000000000000815250815f908161008b9190610434565b50806001908161009b9190610434565b5050505f73ffffffffffffffffffffffffffffffffffffffff168173ffffffffffffffffffffffffffffffffffffffff160361010e575f6040517f1e4fbdf70000000000000000000000000000000000000000000000000000000081526004016101059190610542565b60405180910390fd5b61011d8161012360201b60201c565b5061055b565b5f60065f9054906101000a900473ffffffffffffffffffffffffffffffffffffffff1690508160065f6101000a81548173ffffffffffffffffffffffffffffffffffffffff021916908373ffffffffffffffffffffffffffffffffffffffff1602179055508173ffffffffffffffffffffffffffffffffffffffff168173ffffffffffffffffffffffffffffffffffffffff167f8be0079c531659141344cd1fd0a4f28419497f9722a3daafe3b4186f6b6457e060405160405180910390a35050565b5f81519050919050565b7f4e487b71000000000000000000000000000000000000000000000000000000005f52604160045260245ffd5b7f4e487b71000000000000000000000000000000000000000000000000000000005f52602260045260245ffd5b5f600282049050600182168061026157607f821691505b6020821081036102745761027361021d565b5b50919050565b5f819050815f5260205f209050919050565b5f6020601f8301049050919050565b5f82821b905092915050565b5f600883026102d67fffffffffffffffffffffffffffffffffffffffffffffffffffffffffffffffff8261029b565b6102e0868361029b565b95508019841693508086168417925050509392505050565b5f819050919050565b5f819050919050565b5f61032461031f61031a846102f8565b610301565b6102f8565b9050919050565b5f819050919050565b61033d8361030a565b6103516103498261032b565b8484546102a7565b825550505050565b5f5f905090565b610368610359565b610373818484610334565b505050565b5f5b828110156103995761038e5f828401610360565b60018101905061037a565b505050565b601f8211156103ec57828211156103eb576103b88161027a565b6103c18361028c565b6103ca8561028c565b60208610156103d7575f90505b8083016103e682840382610378565b505050505b5b505050565b5f82821c905092915050565b5f61040c5f19846008026103f1565b1980831691505092915050565b5f61042483836103fd565b9150826002028217905092915050565b61043d826101e6565b67ffffffffffffffff811115610456576104556101f0565b5b610460825461024a565b61046b82828561039e565b5f60209050601f83116001811461049c575f841561048a578287015190505b6104948582610419565b8655506104fb565b601f1984166104aa8661027a565b5f5b828110156104d1578489015182556001820191506020850194506020810190506104ac565b868310156104ee57848901516104ea601f8916826103fd565b8355505b6001600288020188555050505b505050505050565b5f73ffffffffffffffffffffffffffffffffffffffff82169050919050565b5f61052c82610503565b9050919050565b61053c81610522565b82525050565b5f6020820190506105555f830184610533565b92915050565b612335806105685f395ff3fe608060405234801561000f575f5ffd5b506004361061011f575f3560e01c806370a08231116100ab578063a22cb4651161006f578063a22cb46514610319578063b88d4fde14610335578063c87b56dd14610351578063e985e9c514610381578063f2fde38b146103b15761011f565b806370a0823114610273578063715018a6146102a35780638da5cb5b146102ad578063937cde20146102cb57806395d89b41146102fb5761011f565b80631249c58b116100f25780631249c58b146101bd57806323b872dd146101db57806338e21cce146101f757806342842e0e146102275780636352211e146102435761011f565b806301ffc9a71461012357806306fdde0314610153578063081812fc14610171578063095ea7b3146101a1575b5f5ffd5b61013d60048036038101906101389190611b04565b6103cd565b60405161014a9190611b49565b60405180910390f35b61015b6104ae565b6040516101689190611bd2565b60405180910390f35b61018b60048036038101906101869190611c25565b61053d565b6040516101989190611c8f565b60405180910390f35b6101bb60048036038101906101b69190611cd2565b610558565b005b6101c561056e565b6040516101d29190611d1f565b60405180910390f35b6101f560048036038101906101f09190611d38565b6106c0565b005b610211600480360381019061020c9190611d88565b6107bf565b60405161021e9190611b49565b60405180910390f35b610241600480360381019061023c9190611d38565b6107dc565b005b61025d60048036038101906102589190611c25565b6107fb565b60405161026a9190611c8f565b60405180910390f35b61028d60048036038101906102889190611d88565b61080c565b60405161029a9190611d1f565b60405180910390f35b6102ab6108c2565b005b6102b56108d5565b6040516102c29190611c8f565b60405180910390f35b6102e560048036038101906102e09190611d88565b6108fd565b6040516102f29190611b49565b60405180910390f35b610303610961565b6040516103109190611bd2565b60405180910390f35b610333600480360381019061032e9190611ddd565b6109f1565b005b61034f600480360381019061034a9190611f47565b610a07565b005b61036b60048036038101906103669190611c25565b610a2c565b6040516103789190611bd2565b60405180910390f35b61039b60048036038101906103969190611fc7565b610a92565b6040516103a89190611b49565b60405180910390f35b6103cb60048036038101906103c69190611d88565b610b20565b005b5f7f80ac58cd000000000000000000000000000000000000000000000000000000007bffffffffffffffffffffffffffffffffffffffffffffffffffffffff1916827bffffffffffffffffffffffffffffffffffffffffffffffffffffffff1916148061049757507f5b5e139f000000000000000000000000000000000000000000000000000000007bffffffffffffffffffffffffffffffffffffffffffffffffffffffff1916827bffffffffffffffffffffffffffffffffffffffffffffffffffffffff1916145b806104a757506104a682610ba4565b5b9050919050565b60605f80546104bc90612032565b80601f01602080910402602001604051908101604052809291908181526020018280546104e890612032565b80156105335780601f1061050a57610100808354040283529160200191610533565b820191905f5260205f20905b81548152906001019060200180831161051657829003601f168201915b5050505050905090565b5f61054782610c0d565b5061055182610c93565b9050919050565b61056a8282610565610ccc565b610cd3565b5050565b5f60085f3373ffffffffffffffffffffffffffffffffffffffff1673ffffffffffffffffffffffffffffffffffffffff1681526020019081526020015f205f9054906101000a900460ff16156105f9576040517f08c379a00000000000000000000000000000000000000000000000000000000081526004016105f0906120ac565b60405180910390fd5b5f600754905060075f815480929190610611906120f7565b9190505550600160085f3373ffffffffffffffffffffffffffffffffffffffff1673ffffffffffffffffffffffffffffffffffffffff1681526020019081526020015f205f6101000a81548160ff0219169083151502179055506106753382610ce5565b803373ffffffffffffffffffffffffffffffffffffffff167f35366f116e63e323da291fbd01cfcd53069179726cdc03edbd7f8ae1cf86a7f260405160405180910390a38091505090565b5f73ffffffffffffffffffffffffffffffffffffffff168273ffffffffffffffffffffffffffffffffffffffff1603610730575f6040517f64a0ae920000000000000000000000000000000000000000000000000000000081526004016107279190611c8f565b60405180910390fd5b5f610743838361073e610ccc565b610d02565b90508373ffffffffffffffffffffffffffffffffffffffff168173ffffffffffffffffffffffffffffffffffffffff16146107b9578382826040517f64283d7b0000000000000000000000000000000000000000000000000000000081526004016107b09392919061213e565b60405180910390fd5b50505050565b6008602052805f5260405f205f915054906101000a900460ff1681565b6107f683838360405180602001604052805f815250610a07565b505050565b5f61080582610c0d565b9050919050565b5f5f73ffffffffffffffffffffffffffffffffffffffff168273ffffffffffffffffffffffffffffffffffffffff160361087d575f6040517f89c62b640000000000000000000000000000000000000000000000000000000081526004016108749190611c8f565b60405180910390fd5b60035f8373ffffffffffffffffffffffffffffffffffffffff1673ffffffffffffffffffffffffffffffffffffffff1681526020019081526020015f20549050919050565b6108ca610f0d565b6108d35f610f94565b565b5f60065f9054906101000a900473ffffffffffffffffffffffffffffffffffffffff16905090565b5f60085f8373ffffffffffffffffffffffffffffffffffffffff1673ffffffffffffffffffffffffffffffffffffffff1681526020019081526020015f205f9054906101000a900460ff168061095a57505f6109588361080c565b115b9050919050565b60606001805461097090612032565b80601f016020809104026020016040519081016040528092919081815260200182805461099c90612032565b80156109e75780601f106109be576101008083540402835291602001916109e7565b820191905f5260205f20905b8154815290600101906020018083116109ca57829003601f168201915b5050505050905090565b610a036109fc610ccc565b8383611057565b5050565b610a128484846106c0565b610a26610a1d610ccc565b85858585611230565b50505050565b6060610a3782610c0d565b505f610a416113dc565b90505f815111610a5f5760405180602001604052805f815250610a8a565b80610a69846113f2565b604051602001610a7a9291906121ad565b6040516020818303038152906040525b915050919050565b5f60055f8473ffffffffffffffffffffffffffffffffffffffff1673ffffffffffffffffffffffffffffffffffffffff1681526020019081526020015f205f8373ffffffffffffffffffffffffffffffffffffffff1673ffffffffffffffffffffffffffffffffffffffff1681526020019081526020015f205f9054906101000a900460ff16905092915050565b610b28610f0d565b5f73ffffffffffffffffffffffffffffffffffffffff168173ffffffffffffffffffffffffffffffffffffffff1603610b98575f6040517f1e4fbdf7000000000000000000000000000000000000000000000000000000008152600401610b8f9190611c8f565b60405180910390fd5b610ba181610f94565b50565b5f7f01ffc9a7000000000000000000000000000000000000000000000000000000007bffffffffffffffffffffffffffffffffffffffffffffffffffffffff1916827bffffffffffffffffffffffffffffffffffffffffffffffffffffffff1916149050919050565b5f5f610c18836114bc565b90505f73ffffffffffffffffffffffffffffffffffffffff168173ffffffffffffffffffffffffffffffffffffffff1603610c8a57826040517f7e273289000000000000000000000000000000000000000000000000000000008152600401610c819190611d1f565b60405180910390fd5b80915050919050565b5f60045f8381526020019081526020015f205f9054906101000a900473ffffffffffffffffffffffffffffffffffffffff169050919050565b5f33905090565b610ce083838360016114f5565b505050565b610cfe828260405180602001604052805f8152506116b4565b5050565b5f5f610d0d846114bc565b90505f73ffffffffffffffffffffffffffffffffffffffff168373ffffffffffffffffffffffffffffffffffffffff1614610d4e57610d4d8184866116d7565b5b5f73ffffffffffffffffffffffffffffffffffffffff168173ffffffffffffffffffffffffffffffffffffffff1614610dd957610d8d5f855f5f6114f5565b600160035f8373ffffffffffffffffffffffffffffffffffffffff1673ffffffffffffffffffffffffffffffffffffffff1681526020019081526020015f205f82825403925050819055505b5f73ffffffffffffffffffffffffffffffffffffffff168573ffffffffffffffffffffffffffffffffffffffff1614610e5857600160035f8773ffffffffffffffffffffffffffffffffffffffff1673ffffffffffffffffffffffffffffffffffffffff1681526020019081526020015f205f82825401925050819055505b8460025f8681526020019081526020015f205f6101000a81548173ffffffffffffffffffffffffffffffffffffffff021916908373ffffffffffffffffffffffffffffffffffffffff160217905550838573ffffffffffffffffffffffffffffffffffffffff168273ffffffffffffffffffffffffffffffffffffffff167fddf252ad1be2c89b69c2b068fc378daa952ba7f163c4a11628f55a4df523b3ef60405160405180910390a4809150509392505050565b610f15610ccc565b73ffffffffffffffffffffffffffffffffffffffff16610f336108d5565b73ffffffffffffffffffffffffffffffffffffffff1614610f9257610f56610ccc565b6040517f118cdaa7000000000000000000000000000000000000000000000000000000008152600401610f899190611c8f565b60405180910390fd5b565b5f60065f9054906101000a900473ffffffffffffffffffffffffffffffffffffffff1690508160065f6101000a81548173ffffffffffffffffffffffffffffffffffffffff021916908373ffffffffffffffffffffffffffffffffffffffff1602179055508173ffffffffffffffffffffffffffffffffffffffff168173ffffffffffffffffffffffffffffffffffffffff167f8be0079c531659141344cd1fd0a4f28419497f9722a3daafe3b4186f6b6457e060405160405180910390a35050565b5f73ffffffffffffffffffffffffffffffffffffffff168373ffffffffffffffffffffffffffffffffffffffff16036110c7575f6040517fa9fbf51f0000000000000000000000000000000000000000000000000000000081526004016110be9190611c8f565b60405180910390fd5b5f73ffffffffffffffffffffffffffffffffffffffff168273ffffffffffffffffffffffffffffffffffffffff160361113757816040517f5b08ba1800000000000000000000000000000000000000000000000000000000815260040161112e9190611c8f565b60405180910390fd5b8060055f8573ffffffffffffffffffffffffffffffffffffffff1673ffffffffffffffffffffffffffffffffffffffff1681526020019081526020015f205f8473ffffffffffffffffffffffffffffffffffffffff1673ffffffffffffffffffffffffffffffffffffffff1681526020019081526020015f205f6101000a81548160ff0219169083151502179055508173ffffffffffffffffffffffffffffffffffffffff168373ffffffffffffffffffffffffffffffffffffffff167f17307eab39ab6107e8899845ad3d59bd9653f200f220920489ca2b5937696c31836040516112239190611b49565b60405180910390a3505050565b5f8373ffffffffffffffffffffffffffffffffffffffff163b11156113d5578273ffffffffffffffffffffffffffffffffffffffff1663150b7a02868685856040518563ffffffff1660e01b815260040161128e9493929190612222565b6020604051808303815f875af19250505080156112c957506040513d601f19601f820116820180604052508101906112c69190612280565b60015b61134a573d805f81146112f7576040519150601f19603f3d011682016040523d82523d5f602084013e6112fc565b606091505b505f81510361134257836040517f64a0ae920000000000000000000000000000000000000000000000000000000081526004016113399190611c8f565b60405180910390fd5b805160208201fd5b63150b7a0260e01b7bffffffffffffffffffffffffffffffffffffffffffffffffffffffff1916817bffffffffffffffffffffffffffffffffffffffffffffffffffffffff1916146113d357836040517f64a0ae920000000000000000000000000000000000000000000000000000000081526004016113ca9190611c8f565b60405180910390fd5b505b5050505050565b606060405180602001604052805f815250905090565b60605f60016114008461179a565b0190505f8167ffffffffffffffff81111561141e5761141d611e23565b5b6040519080825280601f01601f1916602001820160405280156114505781602001600182028036833780820191505090505b5090505f82602083010190505b6001156114b1578080600190039150507f3031323334353637383961626364656600000000000000000000000000000000600a86061a8153600a85816114a6576114a56122ab565b5b0494505f850361145d575b819350505050919050565b5f60025f8381526020019081526020015f205f9054906101000a900473ffffffffffffffffffffffffffffffffffffffff169050919050565b808061152d57505f73ffffffffffffffffffffffffffffffffffffffff168273ffffffffffffffffffffffffffffffffffffffff1614155b1561165f575f61153c84610c0d565b90505f73ffffffffffffffffffffffffffffffffffffffff168373ffffffffffffffffffffffffffffffffffffffff16141580156115a657508273ffffffffffffffffffffffffffffffffffffffff168173ffffffffffffffffffffffffffffffffffffffff1614155b80156115b957506115b78184610a92565b155b156115fb57826040517fa9fbf51f0000000000000000000000000000000000000000000000000000000081526004016115f29190611c8f565b60405180910390fd5b811561165d57838573ffffffffffffffffffffffffffffffffffffffff168273ffffffffffffffffffffffffffffffffffffffff167f8c5be1e5ebec7d5bd14f71427d1e84f3dd0314c0f7b2291e5b200ac8c7c3b92560405160405180910390a45b505b8360045f8581526020019081526020015f205f6101000a81548173ffffffffffffffffffffffffffffffffffffffff021916908373ffffffffffffffffffffffffffffffffffffffff16021790555050505050565b6116be83836118eb565b6116d26116c9610ccc565b5f858585611230565b505050565b6116e28383836119de565b611795575f73ffffffffffffffffffffffffffffffffffffffff168373ffffffffffffffffffffffffffffffffffffffff160361175657806040517f7e27328900000000000000000000000000000000000000000000000000000000815260040161174d9190611d1f565b60405180910390fd5b81816040517f177e802f00000000000000000000000000000000000000000000000000000000815260040161178c9291906122d8565b60405180910390fd5b505050565b5f5f5f90507a184f03e93ff9f4daa797ed6e38ed64bf6a1f01000000000000000083106117f6577a184f03e93ff9f4daa797ed6e38ed64bf6a1f01000000000000000083816117ec576117eb6122ab565b5b0492506040810190505b6d04ee2d6d415b85acef81000000008310611833576d04ee2d6d415b85acef81000000008381611829576118286122ab565b5b0492506020810190505b662386f26fc10000831061186257662386f26fc100008381611858576118576122ab565b5b0492506010810190505b6305f5e100831061188b576305f5e1008381611881576118806122ab565b5b0492506008810190505b61271083106118b05761271083816118a6576118a56122ab565b5b0492506004810190505b606483106118d357606483816118c9576118c86122ab565b5b0492506002810190505b600a83106118e2576001810190505b80915050919050565b5f73ffffffffffffffffffffffffffffffffffffffff168273ffffffffffffffffffffffffffffffffffffffff160361195b575f6040517f64a0ae920000000000000000000000000000000000000000000000000000000081526004016119529190611c8f565b60405180910390fd5b5f61196783835f610d02565b90505f73ffffffffffffffffffffffffffffffffffffffff168173ffffffffffffffffffffffffffffffffffffffff16146119d9575f6040517f73c6ac6e0000000000000000000000000000000000000000000000000000000081526004016119d09190611c8f565b60405180910390fd5b505050565b5f5f73ffffffffffffffffffffffffffffffffffffffff168373ffffffffffffffffffffffffffffffffffffffff1614158015611a9557508273ffffffffffffffffffffffffffffffffffffffff168473ffffffffffffffffffffffffffffffffffffffff161480611a565750611a558484610a92565b5b80611a9457508273ffffffffffffffffffffffffffffffffffffffff16611a7c83610c93565b73ffffffffffffffffffffffffffffffffffffffff16145b5b90509392505050565b5f604051905090565b5f5ffd5b5f5ffd5b5f7fffffffff0000000000000000000000000000000000000000000000000000000082169050919050565b611ae381611aaf565b8114611aed575f5ffd5b50565b5f81359050611afe81611ada565b92915050565b5f60208284031215611b1957611b18611aa7565b5b5f611b2684828501611af0565b91505092915050565b5f8115159050919050565b611b4381611b2f565b82525050565b5f602082019050611b5c5f830184611b3a565b92915050565b5f81519050919050565b5f82825260208201905092915050565b8281835e5f83830152505050565b5f601f19601f8301169050919050565b5f611ba482611b62565b611bae8185611b6c565b9350611bbe818560208601611b7c565b611bc781611b8a565b840191505092915050565b5f6020820190508181035f830152611bea8184611b9a565b905092915050565b5f819050919050565b611c0481611bf2565b8114611c0e575f5ffd5b50565b5f81359050611c1f81611bfb565b92915050565b5f60208284031215611c3a57611c39611aa7565b5b5f611c4784828501611c11565b91505092915050565b5f73ffffffffffffffffffffffffffffffffffffffff82169050919050565b5f611c7982611c50565b9050919050565b611c8981611c6f565b82525050565b5f602082019050611ca25f830184611c80565b92915050565b611cb181611c6f565b8114611cbb575f5ffd5b50565b5f81359050611ccc81611ca8565b92915050565b5f5f60408385031215611ce857611ce7611aa7565b5b5f611cf585828601611cbe565b9250506020611d0685828601611c11565b9150509250929050565b611d1981611bf2565b82525050565b5f602082019050611d325f830184611d10565b92915050565b5f5f5f60608486031215611d4f57611d4e611aa7565b5b5f611d5c86828701611cbe565b9350506020611d6d86828701611cbe565b9250506040611d7e86828701611c11565b9150509250925092565b5f60208284031215611d9d57611d9c611aa7565b5b5f611daa84828501611cbe565b91505092915050565b611dbc81611b2f565b8114611dc6575f5ffd5b50565b5f81359050611dd781611db3565b92915050565b5f5f60408385031215611df357611df2611aa7565b5b5f611e0085828601611cbe565b9250506020611e1185828601611dc9565b9150509250929050565b5f5ffd5b5f5ffd5b7f4e487b71000000000000000000000000000000000000000000000000000000005f52604160045260245ffd5b611e5982611b8a565b810181811067ffffffffffffffff82111715611e7857611e77611e23565b5b80604052505050565b5f611e8a611a9e565b9050611e968282611e50565b919050565b5f67ffffffffffffffff821115611eb557611eb4611e23565b5b611ebe82611b8a565b9050602081019050919050565b828183375f83830152505050565b5f611eeb611ee684611e9b565b611e81565b905082815260208101848484011115611f0757611f06611e1f565b5b611f12848285611ecb565b509392505050565b5f82601f830112611f2e57611f2d611e1b565b5b8135611f3e848260208601611ed9565b91505092915050565b5f5f5f5f60808587031215611f5f57611f5e611aa7565b5b5f611f6c87828801611cbe565b9450506020611f7d87828801611cbe565b9350506040611f8e87828801611c11565b925050606085013567ffffffffffffffff811115611faf57611fae611aab565b5b611fbb87828801611f1a565b91505092959194509250565b5f5f60408385031215611fdd57611fdc611aa7565b5b5f611fea85828601611cbe565b9250506020611ffb85828601611cbe565b9150509250929050565b7f4e487b71000000000000000000000000000000000000000000000000000000005f52602260045260245ffd5b5f600282049050600182168061204957607f821691505b60208210810361205c5761205b612005565b5b50919050565b7f416c7265616479206d696e7465642061207061737300000000000000000000005f82015250565b5f612096601583611b6c565b91506120a182612062565b602082019050919050565b5f6020820190508181035f8301526120c38161208a565b9050919050565b7f4e487b71000000000000000000000000000000000000000000000000000000005f52601160045260245ffd5b5f61210182611bf2565b91507fffffffffffffffffffffffffffffffffffffffffffffffffffffffffffffffff8203612133576121326120ca565b5b600182019050919050565b5f6060820190506121515f830186611c80565b61215e6020830185611d10565b61216b6040830184611c80565b949350505050565b5f81905092915050565b5f61218782611b62565b6121918185612173565b93506121a1818560208601611b7c565b80840191505092915050565b5f6121b8828561217d565b91506121c4828461217d565b91508190509392505050565b5f81519050919050565b5f82825260208201905092915050565b5f6121f4826121d0565b6121fe81856121da565b935061220e818560208601611b7c565b61221781611b8a565b840191505092915050565b5f6080820190506122355f830187611c80565b6122426020830186611c80565b61224f6040830185611d10565b818103606083015261226181846121ea565b905095945050505050565b5f8151905061227a81611ada565b92915050565b5f6020828403121561229557612294611aa7565b5b5f6122a28482850161226c565b91505092915050565b7f4e487b71000000000000000000000000000000000000000000000000000000005f52601260045260245ffd5b5f6040820190506122eb5f830185611c80565b6122f86020830184611d10565b939250505056fea2646970667358221220c650b5f34b8326c8c87ba9214537483f6f6f619a1a93bf2f5955a7def89e6a4264736f6c63430008230033","linkReferences":{}},"methodIdentifiers":{"approve(address,uint256)":"095ea7b3","balanceOf(address)":"70a08231","getApproved(uint256)":"081812fc","hasMinted(address)":"38e21cce","hasPass(address)":"937cde20","isApprovedForAll(address,address)":"e985e9c5","mint()":"1249c58b","name()":"06fdde03","owner()":"8da5cb5b","ownerOf(uint256)":"6352211e","renounceOwnership()":"715018a6","safeTransferFrom(address,address,uint256)":"42842e0e","safeTransferFrom(address,address,uint256,bytes)":"b88d4fde","setApprovalForAll(address,bool)":"a22cb465","supportsInterface(bytes4)":"01ffc9a7","symbol()":"95d89b41","tokenURI(uint256)":"c87b56dd","transferFrom(address,address,uint256)":"23b872dd","transferOwnership(address)":"f2fde38b"},"id":16}