{"abi":[{"type":"constructor","inputs":[{"name":"_usdc","type":"address","internalType":"address"}],"stateMutability":"nonpayable"},{"type":"function","name":"cancelMarket","inputs":[{"name":"marketId","type":"string","internalType":"string"}],"outputs":[],"stateMutability":"nonpayable"},{"type":"function","name":"claimWinnings","inputs":[{"name":"marketId","type":"string","internalType":"string"}],"outputs":[],"stateMutability":"nonpayable"},{"type":"function","name":"claimed","inputs":[{"name":"","type":"string","internalType":"string"},{"name":"","type":"address","internalType":"address"}],"outputs":[{"name":"","type":"bool","internalType":"bool"}],"stateMutability":"view"},{"type":"function","name":"createMarket","inputs":[{"name":"marketId","type":"string","internalType":"string"},{"name":"category","type":"string","internalType":"string"},{"name":"question","type":"string","internalType":"string"},{"name":"analysisJson","type":"string","internalType":"string"},{"name":"resolutionTime","type":"uint256","internalType":"uint256"}],"outputs":[],"stateMutability":"nonpayable"},{"type":"function","name":"fadeStakes","inputs":[{"name":"","type":"string","internalType":"string"},{"name":"","type":"address","internalType":"address"}],"outputs":[{"name":"","type":"uint256","internalType":"uint256"}],"stateMutability":"view"},{"type":"function","name":"followStakes","inputs":[{"name":"","type":"string","internalType":"string"},{"name":"","type":"address","internalType":"address"}],"outputs":[{"name":"","type":"uint256","internalType":"uint256"}],"stateMutability":"view"},{"type":"function","name":"getAddressByUsername","inputs":[{"name":"username","type":"string","internalType":"string"}],"outputs":[{"name":"","type":"address","internalType":"address"}],"stateMutability":"view"},{"type":"function","name":"getAllMarketIds","inputs":[],"outputs":[{"name":"","type":"string[]","internalType":"string[]"}],"stateMutability":"view"},{"type":"function","name":"getMarket","inputs":[{"name":"marketId","type":"string","internalType":"string"}],"outputs":[{"name":"","type":"tuple","internalType":"struct ARCSignal.Market","components":[{"name":"marketId","type":"string","internalType":"string"},{"name":"category","type":"string","internalType":"string"},{"name":"question","type":"string","internalType":"string"},{"name":"analysisJson","type":"string","internalType":"string"},{"name":"resolutionTime","type":"uint256","internalType":"uint256"},{"name":"followPool","type":"uint256","internalType":"uint256"},{"name":"fadePool","type":"uint256","internalType":"uint256"},{"name":"resolved","type":"bool","internalType":"bool"},{"name":"outcome","type":"uint8","internalType":"uint8"}]}],"stateMutability":"view"},{"type":"function","name":"getMarketCount","inputs":[],"outputs":[{"name":"","type":"uint256","internalType":"uint256"}],"stateMutability":"view"},{"type":"function","name":"getMarketIdByIndex","inputs":[{"name":"index","type":"uint256","internalType":"uint256"}],"outputs":[{"name":"","type":"string","internalType":"string"}],"stateMutability":"view"},{"type":"function","name":"getProfile","inputs":[{"name":"user","type":"address","internalType":"address"}],"outputs":[{"name":"","type":"tuple","internalType":"struct ARCSignal.UserProfile","components":[{"name":"username","type":"string","internalType":"string"},{"name":"bio","type":"string","internalType":"string"},{"name":"avatarUrl","type":"string","internalType":"string"}]}],"stateMutability":"view"},{"type":"function","name":"marketIds","inputs":[{"name":"","type":"uint256","internalType":"uint256"}],"outputs":[{"name":"","type":"string","internalType":"string"}],"stateMutability":"view"},{"type":"function","name":"markets","inputs":[{"name":"","type":"string","internalType":"string"}],"outputs":[{"name":"marketId","type":"string","internalType":"string"},{"name":"category","type":"string","internalType":"string"},{"name":"question","type":"string","internalType":"string"},{"name":"analysisJson","type":"string","internalType":"string"},{"name":"resolutionTime","type":"uint256","internalType":"uint256"},{"name":"followPool","type":"uint256","internalType":"uint256"},{"name":"fadePool","type":"uint256","internalType":"uint256"},{"name":"resolved","type":"bool","internalType":"bool"},{"name":"outcome","type":"uint8","internalType":"uint8"}],"stateMutability":"view"},{"type":"function","name":"owner","inputs":[],"outputs":[{"name":"","type":"address","internalType":"address"}],"stateMutability":"view"},{"type":"function","name":"profiles","inputs":[{"name":"","type":"address","internalType":"address"}],"outputs":[{"name":"username","type":"string","internalType":"string"},{"name":"bio","type":"string","internalType":"string"},{"name":"avatarUrl","type":"string","internalType":"string"}],"stateMutability":"view"},{"type":"function","name":"renounceOwnership","inputs":[],"outputs":[],"stateMutability":"nonpayable"},{"type":"function","name":"resolveMarket","inputs":[{"name":"marketId","type":"string","internalType":"string"},{"name":"outcome","type":"uint8","internalType":"uint8"}],"outputs":[],"stateMutability":"nonpayable"},{"type":"function","name":"setProfile","inputs":[{"name":"username","type":"string","internalType":"string"},{"name":"bio","type":"string","internalType":"string"},{"name":"avatarUrl","type":"string","internalType":"string"}],"outputs":[],"stateMutability":"nonpayable"},{"type":"function","name":"stake","inputs":[{"name":"marketId","type":"string","internalType":"string"},{"name":"side","type":"uint8","internalType":"uint8"},{"name":"amount","type":"uint256","internalType":"uint256"}],"outputs":[],"stateMutability":"nonpayable"},{"type":"function","name":"transferOwnership","inputs":[{"name":"newOwner","type":"address","internalType":"address"}],"outputs":[],"stateMutability":"nonpayable"},{"type":"function","name":"usdc","inputs":[],"outputs":[{"name":"","type":"address","internalType":"contract IERC20"}],"stateMutability":"view"},{"type":"function","name":"usernameToAddress","inputs":[{"name":"","type":"string","internalType":"string"}],"outputs":[{"name":"","type":"address","internalType":"address"}],"stateMutability":"view"},{"type":"event","name":"Claimed","inputs":[{"name":"marketId","type":"string","indexed":false,"internalType":"string"},{"name":"user","type":"address","indexed":false,"internalType":"address"},{"name":"amount","type":"uint256","indexed":false,"internalType":"uint256"}],"anonymous":false},{"type":"event","name":"MarketCreated","inputs":[{"name":"marketId","type":"string","indexed":false,"internalType":"string"},{"name":"category","type":"string","indexed":false,"internalType":"string"},{"name":"question","type":"string","indexed":false,"internalType":"string"},{"name":"resolutionTime","type":"uint256","indexed":false,"internalType":"uint256"}],"anonymous":false},{"type":"event","name":"MarketResolved","inputs":[{"name":"marketId","type":"string","indexed":false,"internalType":"string"},{"name":"outcome","type":"uint8","indexed":false,"internalType":"uint8"}],"anonymous":false},{"type":"event","name":"OwnershipTransferred","inputs":[{"name":"previousOwner","type":"address","indexed":true,"internalType":"address"},{"name":"newOwner","type":"address","indexed":true,"internalType":"address"}],"anonymous":false},{"type":"event","name":"ProfileUpdated","inputs":[{"name":"user","type":"address","indexed":true,"internalType":"address"},{"name":"username","type":"string","indexed":false,"internalType":"string"},{"name":"bio","type":"string","indexed":false,"internalType":"string"},{"name":"avatarUrl","type":"string","indexed":false,"internalType":"string"}],"anonymous":false},{"type":"event","name":"Staked","inputs":[{"name":"marketId","type":"string","indexed":false,"internalType":"string"},{"name":"user","type":"address","indexed":false,"internalType":"address"},{"name":"side","type":"uint8","indexed":false,"internalType":"uint8"},{"name":"amount","type":"uint256","indexed":false,"internalType":"uint256"}],"anonymous":false},{"type":"error","name":"OwnableInvalidOwner","inputs":[{"name":"owner","type":"address","internalType":"address"}]},{"type":"error","name":"OwnableUnauthorizedAccount","inputs":[{"name":"account","type":"address","internalType":"address"}]}],"bytecode":{"object":"0x608060405234801561000f575f5ffd5b50604051612a98380380612a9883398101604081905261002e916100d1565b338061005357604051631e4fbdf760e01b81525f600482015260240160405180910390fd5b61005c81610082565b50600180546001600160a01b0319166001600160a01b03929092169190911790556100fe565b5f80546001600160a01b038381166001600160a01b0319831681178455604051919092169283917f8be0079c531659141344cd1fd0a4f28419497f9722a3daafe3b4186f6b6457e09190a35050565b5f602082840312156100e1575f5ffd5b81516001600160a01b03811681146100f7575f5ffd5b9392505050565b61298d8061010b5f395ff3fe608060405234801561000f575f5ffd5b5060043610610148575f3560e01c80638da5cb5b116100bf578063d388799411610079578063d38879941461034b578063efbda66114610385578063f2fde38b146103ad578063f825f143146103c0578063fd69f3c2146103f4578063fdbcf125146103fc575f5ffd5b80638da5cb5b146102be5780638e4821c5146102ce578063ac2a067d146102e1578063b5c940ae14610301578063b85ed63614610314578063bbe1562714610329575f5ffd5b80635aa8ff15116101105780635aa8ff15146102155780636322961d1461022857806364ff1cb31461023b578063715018a61461024e578063779a9683146102565780638bde0e0114610276575f5ffd5b80630f53a4701461014c5780632ed25620146101755780633e413bee146101c25780633f4a5d0a146101ed5780635264031414610202575b5f5ffd5b61015f61015a366004611e97565b61040f565b60405161016c9190611ee5565b60405180910390f35b6101b2610183366004611fe1565b81516020818401810180516006825292820194820194909420919093529091525f908152604090205460ff1681565b604051901515815260200161016c565b6001546101d5906001600160a01b031681565b6040516001600160a01b03909116815260200161016c565b6102006101fb36600461206f565b61060b565b005b610200610210366004612140565b6108e7565b6102006102233660046121ec565b610bfb565b6101d561023636600461223b565b610d4c565b61020061024936600461223b565b610d81565b610200610e35565b610269610264366004612279565b610e48565b60405161016c9190612290565b6102b0610284366004611fe1565b81516020818401810180516004825292820194820194909420919093529091525f908152604090205481565b60405190815260200161016c565b5f546001600160a01b03166101d5565b6102006102dc3660046122a2565b610eee565b6102f46102ef36600461223b565b6111f2565b60405161016c91906122f9565b61026961030f366004612279565b6114ef565b61031c61159a565b60405161016c91906123bd565b61033c610337366004611e97565b61166e565b60405161016c93929190612420565b6102b0610359366004611fe1565b81516020818401810180516005825292820194820194909420919093529091525f908152604090205481565b610398610393366004612462565b611821565b60405161016c9998979695949392919061249b565b6102006103bb366004611e97565b611a91565b6101d56103ce366004612462565b80516020818301810180516008825292820191909301209152546001600160a01b031681565b6003546102b0565b61020061040a36600461223b565b611ace565b61043360405180606001604052806060815260200160608152602001606081525090565b6001600160a01b0382165f90815260076020526040908190208151606081019092528054829082906104649061251c565b80601f01602080910402602001604051908101604052809291908181526020018280546104909061251c565b80156104db5780601f106104b2576101008083540402835291602001916104db565b820191905f5260205f20905b8154815290600101906020018083116104be57829003601f168201915b505050505081526020016001820180546104f49061251c565b80601f01602080910402602001604051908101604052809291908181526020018280546105209061251c565b801561056b5780601f106105425761010080835404028352916020019161056b565b820191905f5260205f20905b81548152906001019060200180831161054e57829003601f168201915b505050505081526020016002820180546105849061251c565b80601f01602080910402602001604051908101604052809291908181526020018280546105b09061251c565b80156105fb5780601f106105d2576101008083540402835291602001916105fb565b820191905f5260205f20905b8154815290600101906020018083116105de57829003601f168201915b5050505050815250509050919050565b610613611e01565b60028989604051610625929190612554565b908152604051908190036020019020805461063f9061251c565b15905061068b5760405162461bcd60e51b81526020600482015260156024820152744d61726b657420616c72656164792065786973747360581b60448201526064015b60405180910390fd5b6040518061012001604052808a8a8080601f0160208091040260200160405190810160405280939291908181526020018383808284375f92019190915250505090825250604080516020601f8b0181900481028201810190925289815291810191908a908a90819084018382808284375f92019190915250505090825250604080516020601f8901819004810282018101909252878152918101919088908890819084018382808284375f92019190915250505090825250604080516020601f8701819004810282018101909252858152918101919086908690819084018382808284375f920182905250938552505050602082018490526040808301829052606083018290526080830182905260a090920152516002906107b0908c908c90612554565b908152604051908190036020019020815181906107cd90826125ba565b50602082015160018201906107e290826125ba565b50604082015160028201906107f790826125ba565b506060820151600382019061080c90826125ba565b506080820151600482015560a0820151600582015560c0820151600682015560e0820151600790910180546101009384015161ffff1990911692151561ff0019169290921760ff909216909202179055600380546001810182555f919091527fc2575a0e9e593c00f959f8c92f12db2869c3395a3b0502d05e2516446f71f85b01610898898b83612678565b507fb746b668f3bd1cd2ce4b80a63e72fc294b872f5dbdcddc21cd71bfb20bddb4a2898989898989876040516108d49796959493929190612759565b60405180910390a1505050505050505050565b335f90815260076020526040812080546109009061251c565b80601f016020809104026020016040519081016040528092919081815260200182805461092c9061251c565b80156109775780601f1061094e57610100808354040283529160200191610977565b820191905f5260205f20905b81548152906001019060200180831161095a57829003601f168201915b505050505090505f815111156109b55760088160405161099791906127a9565b90815260405190819003602001902080546001600160a01b03191690555b8515610aae575f6001600160a01b0316600888886040516109d7929190612554565b908152604051908190036020019020546001600160a01b03161480610a2e5750336001600160a01b031660088888604051610a13929190612554565b908152604051908190036020019020546001600160a01b0316145b610a6b5760405162461bcd60e51b815260206004820152600e60248201526d2ab9b2b93730b6b2903a30b5b2b760911b6044820152606401610682565b3360088888604051610a7e929190612554565b90815260405190819003602001902080546001600160a01b03929092166001600160a01b03199092169190911790555b604051806060016040528088888080601f0160208091040260200160405190810160405280939291908181526020018383808284375f92019190915250505090825250604080516020601f8901819004810282018101909252878152918101919088908890819084018382808284375f92019190915250505090825250604080516020601f8701819004810282018101909252858152918101919086908690819084018382808284375f92018290525093909452505033815260076020526040902082519091508190610b8190826125ba565b5060208201516001820190610b9690826125ba565b5060408201516002820190610bab90826125ba565b50506040513391507f6420daf1b58438e85465ef21dee378d307a509caab491149e3f066c5caf1266d90610bea908a908a908a908a908a908a906127bf565b60405180910390a250505050505050565b610c03611e01565b5f60028484604051610c16929190612554565b908152602001604051809103902090505f815f018054610c359061251c565b905011610c545760405162461bcd60e51b815260040161068290612807565b600781015460ff1615610c9c5760405162461bcd60e51b815260206004820152601060248201526f105b1c9958591e481c995cdbdb1d995960821b6044820152606401610682565b8160ff1660011480610cb157508160ff166002145b610cef5760405162461bcd60e51b815260206004820152600f60248201526e496e76616c6964206f7574636f6d6560881b6044820152606401610682565b60078101805460ff84166101000261ffff199091161760011790556040517f9dc5f3aa979166e3973169ba85cc4aff965cdd42156ea7225eb4b13cf11dd14c90610d3e90869086908690612836565b60405180910390a150505050565b5f60088383604051610d5f929190612554565b908152604051908190036020019020546001600160a01b031690505b92915050565b610d89611e01565b5f60028383604051610d9c929190612554565b908152602001604051809103902090505f815f018054610dbb9061251c565b905011610dda5760405162461bcd60e51b815260040161068290612807565b600781015460ff1615610e225760405162461bcd60e51b815260206004820152601060248201526f105b1c9958591e481c995cdbdb1d995960821b6044820152606401610682565b600701805461ffff191660011790555050565b610e3d611e01565b610e465f611e2d565b565b60038181548110610e57575f80fd5b905f5260205f20015f915090508054610e6f9061251c565b80601f0160208091040260200160405190810160405280929190818152602001828054610e9b9061251c565b8015610ee65780601f10610ebd57610100808354040283529160200191610ee6565b820191905f5260205f20905b815481529060010190602001808311610ec957829003601f168201915b505050505081565b5f60028585604051610f01929190612554565b908152602001604051809103902090505f815f018054610f209061251c565b905011610f3f5760405162461bcd60e51b815260040161068290612807565b600781015460ff1615610f945760405162461bcd60e51b815260206004820152601760248201527f4d61726b657420616c7265616479207265736f6c7665640000000000000000006044820152606401610682565b80600401544210610fd85760405162461bcd60e51b815260206004820152600e60248201526d13585c9ad95d08195e1c1a5c995960921b6044820152606401610682565b60ff83161580610feb57508260ff166001145b6110265760405162461bcd60e51b815260206004820152600c60248201526b496e76616c6964207369646560a01b6044820152606401610682565b5f821161106a5760405162461bcd60e51b81526020600482015260126024820152710416d6f756e74206d757374206265203e20360741b6044820152606401610682565b6001546040516323b872dd60e01b8152336004820152306024820152604481018490526001600160a01b03909116906323b872dd906064016020604051808303815f875af11580156110be573d5f5f3e3d5ffd5b505050506040513d601f19601f820116820180604052508101906110e2919061285c565b508260ff165f0361114f578160048686604051611100929190612554565b9081526040805160209281900383019020335f90815292528120805490919061112a90849061288f565b9250508190555081816005015f828254611144919061288f565b909155506111ac9050565b8160058686604051611162929190612554565b9081526040805160209281900383019020335f90815292528120805490919061118c90849061288f565b9250508190555081816006015f8282546111a6919061288f565b90915550505b7ffb556f5c073bfd584ecae504eb726ff0af1ac2d030d08ffa0e8c612b2ac990b085853386866040516111e39594939291906128a2565b60405180910390a15050505050565b611241604051806101200160405280606081526020016060815260200160608152602001606081526020015f81526020015f81526020015f81526020015f151581526020015f60ff1681525090565b60028383604051611253929190612554565b9081526020016040518091039020604051806101200160405290815f8201805461127c9061251c565b80601f01602080910402602001604051908101604052809291908181526020018280546112a89061251c565b80156112f35780601f106112ca576101008083540402835291602001916112f3565b820191905f5260205f20905b8154815290600101906020018083116112d657829003601f168201915b5050505050815260200160018201805461130c9061251c565b80601f01602080910402602001604051908101604052809291908181526020018280546113389061251c565b80156113835780601f1061135a57610100808354040283529160200191611383565b820191905f5260205f20905b81548152906001019060200180831161136657829003601f168201915b5050505050815260200160028201805461139c9061251c565b80601f01602080910402602001604051908101604052809291908181526020018280546113c89061251c565b80156114135780601f106113ea57610100808354040283529160200191611413565b820191905f5260205f20905b8154815290600101906020018083116113f657829003601f168201915b5050505050815260200160038201805461142c9061251c565b80601f01602080910402602001604051908101604052809291908181526020018280546114589061251c565b80156114a35780601f1061147a576101008083540402835291602001916114a3565b820191905f5260205f20905b81548152906001019060200180831161148657829003601f168201915b505050918352505060048201546020820152600582015460408201526006820154606082015260079091015460ff808216151560808401526101009091041660a0909101529392505050565b606060038281548110611504576115046128de565b905f5260205f200180546115179061251c565b80601f01602080910402602001604051908101604052809291908181526020018280546115439061251c565b801561158e5780601f106115655761010080835404028352916020019161158e565b820191905f5260205f20905b81548152906001019060200180831161157157829003601f168201915b50505050509050919050565b60606003805480602002602001604051908101604052809291908181526020015f905b82821015611665578382905f5260205f200180546115da9061251c565b80601f01602080910402602001604051908101604052809291908181526020018280546116069061251c565b80156116515780601f1061162857610100808354040283529160200191611651565b820191905f5260205f20905b81548152906001019060200180831161163457829003601f168201915b5050505050815260200190600101906115bd565b50505050905090565b60076020525f90815260409020805481906116889061251c565b80601f01602080910402602001604051908101604052809291908181526020018280546116b49061251c565b80156116ff5780601f106116d6576101008083540402835291602001916116ff565b820191905f5260205f20905b8154815290600101906020018083116116e257829003601f168201915b5050505050908060010180546117149061251c565b80601f01602080910402602001604051908101604052809291908181526020018280546117409061251c565b801561178b5780601f106117625761010080835404028352916020019161178b565b820191905f5260205f20905b81548152906001019060200180831161176e57829003601f168201915b5050505050908060020180546117a09061251c565b80601f01602080910402602001604051908101604052809291908181526020018280546117cc9061251c565b80156118175780601f106117ee57610100808354040283529160200191611817565b820191905f5260205f20905b8154815290600101906020018083116117fa57829003601f168201915b5050505050905083565b80516020818301810180516002825292820191909301209152805481906118479061251c565b80601f01602080910402602001604051908101604052809291908181526020018280546118739061251c565b80156118be5780601f10611895576101008083540402835291602001916118be565b820191905f5260205f20905b8154815290600101906020018083116118a157829003601f168201915b5050505050908060010180546118d39061251c565b80601f01602080910402602001604051908101604052809291908181526020018280546118ff9061251c565b801561194a5780601f106119215761010080835404028352916020019161194a565b820191905f5260205f20905b81548152906001019060200180831161192d57829003601f168201915b50505050509080600201805461195f9061251c565b80601f016020809104026020016040519081016040528092919081815260200182805461198b9061251c565b80156119d65780601f106119ad576101008083540402835291602001916119d6565b820191905f5260205f20905b8154815290600101906020018083116119b957829003601f168201915b5050505050908060030180546119eb9061251c565b80601f0160208091040260200160405190810160405280929190818152602001828054611a179061251c565b8015611a625780601f10611a3957610100808354040283529160200191611a62565b820191905f5260205f20905b815481529060010190602001808311611a4557829003601f168201915b505050506004830154600584015460068501546007909501549394919390925060ff8082169161010090041689565b611a99611e01565b6001600160a01b038116611ac257604051631e4fbdf760e01b81525f6004820152602401610682565b611acb81611e2d565b50565b5f60028383604051611ae1929190612554565b908152604051908190036020019020600781015490915060ff16611b365760405162461bcd60e51b815260206004820152600c60248201526b139bdd081c995cdbdb1d995960a21b6044820152606401610682565b60068383604051611b48929190612554565b9081526040805160209281900383019020335f908152925290205460ff1615611ba55760405162461bcd60e51b815260206004820152600f60248201526e105b1c9958591e4818db185a5b5959608a1b6044820152606401610682565b600781015460ff6101009091041660011480611bcd57506007810154610100900460ff166002145b611c0c5760405162461bcd60e51b815260206004820152601060248201526f13585c9ad95d0818d85b98d95b1b195960821b6044820152606401610682565b60078101545f9081908190610100900460ff16600103611c695760048686604051611c38929190612554565b9081526040805160209281900383019020335f90815292529020546005850154600686015491945092509050611ca8565b60058686604051611c7b929190612554565b9081526040805160209281900383019020335f908152925290205460068501546005860154919450925090505b5f8311611cea5760405162461bcd60e51b815260206004820152601060248201526f4e6f2077696e6e696e67207374616b6560801b6044820152606401610682565b600160068787604051611cfe929190612554565b9081526040805160209281900383019020335f90815292528120805460ff19169215159290921790915582611d3383866128f2565b611d3d9190612909565b611d47908561288f565b60015460405163a9059cbb60e01b8152336004820152602481018390529192506001600160a01b03169063a9059cbb906044016020604051808303815f875af1158015611d96573d5f5f3e3d5ffd5b505050506040513d601f19601f82011682018060405250810190611dba919061285c565b507f7ca58b3d3af286614421364e3dc07e3961a7ce97c19ab3be45fdc2ad13d0b97d87873384604051611df09493929190612928565b60405180910390a150505050505050565b5f546001600160a01b03163314610e465760405163118cdaa760e01b8152336004820152602401610682565b5f80546001600160a01b038381166001600160a01b0319831681178455604051919092169283917f8be0079c531659141344cd1fd0a4f28419497f9722a3daafe3b4186f6b6457e09190a35050565b80356001600160a01b0381168114611e92575f5ffd5b919050565b5f60208284031215611ea7575f5ffd5b611eb082611e7c565b9392505050565b5f81518084528060208401602086015e5f602082860101526020601f19601f83011685010191505092915050565b602081525f825160606020840152611f006080840182611eb7565b90506020840151601f19848303016040850152611f1d8282611eb7565b9150506040840151601f19848303016060850152611f3b8282611eb7565b95945050505050565b634e487b7160e01b5f52604160045260245ffd5b5f82601f830112611f67575f5ffd5b81356001600160401b03811115611f8057611f80611f44565b604051601f8201601f19908116603f011681016001600160401b0381118282101715611fae57611fae611f44565b604052818152838201602001851015611fc5575f5ffd5b816020850160208301375f918101602001919091529392505050565b5f5f60408385031215611ff2575f5ffd5b82356001600160401b03811115612007575f5ffd5b61201385828601611f58565b92505061202260208401611e7c565b90509250929050565b5f5f83601f84011261203b575f5ffd5b5081356001600160401b03811115612051575f5ffd5b602083019150836020828501011115612068575f5ffd5b9250929050565b5f5f5f5f5f5f5f5f5f60a08a8c031215612087575f5ffd5b89356001600160401b0381111561209c575f5ffd5b6120a88c828d0161202b565b909a5098505060208a01356001600160401b038111156120c6575f5ffd5b6120d28c828d0161202b565b90985096505060408a01356001600160401b038111156120f0575f5ffd5b6120fc8c828d0161202b565b90965094505060608a01356001600160401b0381111561211a575f5ffd5b6121268c828d0161202b565b9a9d999c50979a9699959894979660800135949350505050565b5f5f5f5f5f5f60608789031215612155575f5ffd5b86356001600160401b0381111561216a575f5ffd5b61217689828a0161202b565b90975095505060208701356001600160401b03811115612194575f5ffd5b6121a089828a0161202b565b90955093505060408701356001600160401b038111156121be575f5ffd5b6121ca89828a0161202b565b979a9699509497509295939492505050565b803560ff81168114611e92575f5ffd5b5f5f5f604084860312156121fe575f5ffd5b83356001600160401b03811115612213575f5ffd5b61221f8682870161202b565b90945092506122329050602085016121dc565b90509250925092565b5f5f6020838503121561224c575f5ffd5b82356001600160401b03811115612261575f5ffd5b61226d8582860161202b565b90969095509350505050565b5f60208284031215612289575f5ffd5b5035919050565b602081525f611eb06020830184611eb7565b5f5f5f5f606085870312156122b5575f5ffd5b84356001600160401b038111156122ca575f5ffd5b6122d68782880161202b565b90955093506122e99050602086016121dc565b9396929550929360400135925050565b602081525f82516101206020840152612316610140840182611eb7565b90506020840151601f198483030160408501526123338282611eb7565b9150506040840151601f198483030160608501526123518282611eb7565b9150506060840151601f1984830301608085015261236f8282611eb7565b915050608084015160a084015260a084015160c084015260c084015160e084015260e08401516123a461010085018215159052565b5061010084015160ff8116610120850152509392505050565b5f602082016020835280845180835260408501915060408160051b8601019250602086015f5b8281101561241457603f198786030184526123ff858351611eb7565b945060209384019391909101906001016123e3565b50929695505050505050565b606081525f6124326060830186611eb7565b82810360208401526124448186611eb7565b905082810360408401526124588185611eb7565b9695505050505050565b5f60208284031215612472575f5ffd5b81356001600160401b03811115612487575f5ffd5b61249384828501611f58565b949350505050565b61012081525f6124af61012083018c611eb7565b82810360208401526124c1818c611eb7565b905082810360408401526124d5818b611eb7565b905082810360608401526124e9818a611eb7565b6080840198909852505060a081019490945260c0840192909252151560e083015260ff1661010090910152949350505050565b600181811c9082168061253057607f821691505b60208210810361254e57634e487b7160e01b5f52602260045260245ffd5b50919050565b818382375f9101908152919050565b601f8211156125b557828211156125b557805f5260205f20601f840160051c602085101561258e57505f5b90810190601f840160051c035f5b818110156125b1575f8382015560010161259c565b5050505b505050565b81516001600160401b038111156125d3576125d3611f44565b6125e7816125e1845461251c565b84612563565b6020601f821160018114612619575f83156126025750848201515b5f19600385901b1c1916600184901b178455612671565b5f84815260208120601f198516915b828110156126485787850151825560209485019460019092019101612628565b508482101561266557868401515f19600387901b60f8161c191681555b505060018360011b0184555b5050505050565b6001600160401b0383111561268f5761268f611f44565b6126a38361269d835461251c565b83612563565b5f601f8411600181146126d4575f85156126bd5750838201355b5f19600387901b1c1916600186901b178355612671565b5f83815260208120601f198716915b8281101561270357868501358255602094850194600190920191016126e3565b508682101561271f575f1960f88860031b161c19848701351681555b505060018560011b0183555050505050565b81835281816020850137505f828201602090810191909152601f909101601f19169091010190565b608081525f61276c60808301898b612731565b828103602084015261277f81888a612731565b90508281036040840152612794818688612731565b91505082606083015298975050505050505050565b5f82518060208501845e5f920191825250919050565b606081525f6127d260608301888a612731565b82810360208401526127e5818789612731565b905082810360408401526127fa818587612731565b9998505050505050505050565b60208082526015908201527413585c9ad95d08191bd95cc81b9bdd08195e1a5cdd605a1b604082015260600190565b604081525f612849604083018587612731565b905060ff83166020830152949350505050565b5f6020828403121561286c575f5ffd5b81518015158114611eb0575f5ffd5b634e487b7160e01b5f52601160045260245ffd5b80820180821115610d7b57610d7b61287b565b608081525f6128b5608083018789612731565b6001600160a01b039590951660208301525060ff92909216604083015260609091015292915050565b634e487b7160e01b5f52603260045260245ffd5b8082028115828204841417610d7b57610d7b61287b565b5f8261292357634e487b7160e01b5f52601260045260245ffd5b500490565b606081525f61293b606083018688612731565b6001600160a01b0394909416602083015250604001529291505056fea26469706673582212200672f691b2a61323d0aeb8962d5e0465b23f07541a06eaf8d75710dff75e289164736f6c63430008230033","linkReferences":{}},"methodIdentifiers":{"cancelMarket(string)":"64ff1cb3","claimWinnings(string)":"fdbcf125","claimed(string,address)":"2ed25620","createMarket(string,string,string,string,uint256)":"3f4a5d0a","fadeStakes(string,address)":"d3887994","followStakes(string,address)":"8bde0e01","getAddressByUsername(string)":"6322961d","getAllMarketIds()":"b85ed636","getMarket(string)":"ac2a067d","getMarketCount()":"fd69f3c2","getMarketIdByIndex(uint256)":"b5c940ae","getProfile(address)":"0f53a470","marketIds(uint256)":"779a9683","markets(string)":"efbda661","owner()":"8da5cb5b","profiles(address)":"bbe15627","renounceOwnership()":"715018a6","resolveMarket(string,uint8)":"5aa8ff15","setProfile(string,string,string)":"52640314","stake(string,uint8,uint256)":"8e4821c5","transferOwnership(address)":"f2fde38b","usdc()":"3e413bee","usernameToAddress(string)":"f825f143"},"id":41}